:020000040800F2
:10000000981700206902000827110008E110000875
:1000100023110008230300080B3200080000000031
:10002000000000000000000000000000FD120008B9
:10003000F90E000800000000B1110008ED130008DF
:10004000830200088302000883020008830200087C
:10005000830200088302000883020008830200086C
:10006000830200088302000883020008830200085C
:10007000830200088302000883020008830200084C
:10008000F90D0008830200088302000883020008BB
:10009000830200088302000883020008830200082C
:1000A000830200088302000883020008830200081C
:1000B000830200088302000883020008830200080C
:1000C00083020008830200088302000883020008FC
:1000D0008302000883020008830200085914000804
:1000E00083020008830200088302000883020008DC
:1000F00083020008830200088302000883020008CC
:1001000083020008830200088302000883020008BB
:1001100083020008830200088302000883020008AB
:10012000830200088302000883020008830200089B
:10013000830200088302000883020008830200088B
:10014000830200088302000883020008A11100084E
:10015000830200088302000883020008830200086B
:10016000830200088302000883020008830200085B
:10017000830200088302000883020008830200084B
:10018000830200088302000800F002F800F05CF827
:100190000AA090E8000C82448344AAF10107DA45E2
:1001A00001D100F051F8AFF2090EBAE80F0013F0D8
:1001B000010F18BFFB1A43F001031847C8350000B0
:1001C000E83500000A444FF0000C10F8013B13F032
:1001D000070408BF10F8014B1D1108BF10F8015BA0
:1001E000641E05D010F8016B641E01F8016BF9D193
:1001F00013F0080F1EBF10F8014BAD1C0C1B09D1EA
:100200006D1E58BF01F801CBFAD505E014F8016B5B
:1002100001F8016B6D1EF9D59142D6D370470000ED
:100220000023002400250026103A28BF78C1FBD8FF
:10023000520728BF30C148BF0B6070471FB503F09D
:100240009BFA1FBD10B510BD00F031F81146FFF745
:10025000F5FF03F02BF900F04FF803B4FFF7F2FFBE
:1002600003BC00F057F800000948804709480047E0
:10027000FEE7FEE7FEE7FEE7FEE7FEE7FEE7FEE756
:10028000FEE7FEE704480549054A064B70470000B3
:10029000F113000889010008981100209817002028
:1002A00098130020981300207047704770477546D8
:1002B00000F02CF8AE4605006946534620F00700D2
:1002C000854618B020B5FFF7DDFFBDE820404FF0B0
:1002D00000064FF000074FF000084FF0000B21F030
:1002E0000701AC46ACE8C009ACE8C009ACE8C009FD
:1002F000ACE8C0098D46704710B50446AFF30080E6
:100300002046BDE81040FFF7A8BF00000048704736
:100310003811002001491820ABBEFEE7260002007C
:10032000704700BFFEE770B506460C4604F080003B
:10033000802808D104F07F0000EB800106F58E7064
:1003400000EBC10507E004F07F0000EB800106F53B
:100350005D7000EBC10504F07F00287004F08000A0
:10036000C00968702946304602F0FDFB002070BDD0
:1003700070B506460C4604F08000802808D104F0D1
:100380007F0000EB800106F58E7000EBC10505E0F3
:1003900004EB840106F55D7000EBC1050020A87038
:1003A00004F07F002870C4F3C010687029463046FE
:1003B00002F0B1FB002070BD2DE9F04106460D466C
:1003C00090461F4605F08000802808D105F07F0088
:1003D00000EB800106F58E7000EBC10407E005F02C
:1003E0007F0000EB800106F55D7000EBC10405F0B5
:1003F0007F00207005F08000C0096070C4F808809C
:10040000E770607808B12078E080022F01D10020E9
:1004100020712146304602F032FB0020BDE8F08119
:100420002DE9F04105460E461746984606F07F0036
:1004300000EB800105F55D7000EBC104E760C4F8D6
:1004400014800020A061607006F07F002070E878C2
:10045000012800D12761207820B92146284602F0E2
:1004600032FA03E02146284602F0DEFB0020BDE818
:10047000F08108B500220092009A61F30A120092FE
:1004800002691268009B1A4303691A6008BD70B5BF
:1004900006460C4604F08000802808D104F07F0056
:1004A00000EB800106F58E7000EBC10505E004EB62
:1004B000840106F55D7000EBC1050120A87004F011
:1004C0007F002870C4F3C01068702946304602F0DF
:1004D00079FB002070BD2DE9F04107460D46164618
:1004E000984605F07F0000EB800107F58E7000EB69
:1004F000C1040120607005F07F002070E660266175
:100500000020A061C4F81480207820B92146384624
:1005100002F0D9F903E02146384602F085FB0020BD
:10052000BDE8F08130B587B00546594C284602F049
:1005300090F901A800F06EFE029CE868C068059082
:10054000059820F4705005900598E968C860284621
:1005500002F03CFD03280BD10020A8704FF400707E
:10056000A880059820F4705000F5105005907EE0AA
:100570000120A8704020A8804648844209D34648FC
:10058000844206D2059820F4705000F56050059022
:100590006DE04148844209D34048844206D2059820
:1005A00020F4705000F55050059060E03B488442C4
:1005B00009D33B48844206D2059820F4705000F5D8
:1005C0004050059053E03648844209D33548844270
:1005D00006D2059820F4705000F53050059046E0A2
:1005E0003048844209D33048844206D2059820F42A
:1005F000705000F52050059039E02B48844209D313
:100600002A48844206D2059820F4705000F5105014
:1006100005902CE02548844209D32548844206D21F
:10062000059820F4705000F5005005901FE0204818
:10063000844209D31F48844206D2059820F47050A2
:1006400000F5E050059012E01A48844209D31A4898
:10065000844206D2059820F4705000F5C0500590F1
:1006600005E0059820F4705000F5A050059005981D
:10067000E968C86000200690069820F4005000F554
:10068000005006900698E9684861012007B030BD27
:10069000007A030AC0E1E4000024F400E0EC040165
:1006A00000C31801002D310140A44C0100366E0139
:1006B00040E2950180C3C90160600B02F8B50546B0
:1006C000002400200090284602F0C1FC064681E08C
:1006D00006F0010000287BD0E1B2284600F00CFBB8
:1006E0000090009800F0010030B3012000FA04F7F8
:1006F0002869406BB843296948630020009000983E
:1007000020F00100401C009005F1180050F8240072
:1007100000998160E1B232480068426828469047FB
:10072000E878012808D13CB940F21110405D042856
:1007300002D1284602F072F90098C0F3C00060B1FF
:1007400000200090009820F008000830009005F18B
:10075000180050F82400009981600098C0F3001040
:1007600060B100200090009820F010001030009040
:1007700005F1180050F82400009981600098C0F33A
:10078000801060B100200090009820F040004030C0
:10079000009005F1180050F824000099816000983D
:1007A000C0F3400060B100200090009820F00200EB
:1007B000801C009005F1180050F824000099816019
:1007C0000098C0F3C01018B12146284600F0BEFAC8
:1007D000641C7608002E7FF47BAF0120F8BD00007A
:1007E000400000207CB504460025002001902046F2
:1007F00002F035FC06466FE006F00100002869D0E3
:10080000E9B2204602F033FC0190019800F00100AB
:10081000C8B300200190019820F00100401C019015
:1008200004F1540050F8250001998160E078012816
:1008300017D104F1540050F825000069009005EB31
:10084000850104F55D7000EBC10080680099C1F37B
:100850001201411A05EB850204F55D7000EBC20040
:100860008161E9B21E480068026820469047E0783E
:10087000012808D13DB940F21110005D052802D1D0
:10088000204602F0CBF80198C0F3400060B1002090
:100890000190019820F00200801C019004F15400A6
:1008A00050F82500019981600198C0F3C00088B11B
:1008B0000B48006881682046884700200190019815
:1008C00020F008000830019004F1540050F8250091
:1008D000019981606D1C7608002E8DD101207CBDB0
:1008E000400000203EB50446A07A78B1D4F80C014F
:1008F00000680090009820F002000090009820F01E
:10090000010000900099D4F80C01016000200190D2
:10091000019820F00100401C019020694068019975
:1009200088432169486009480068816920468847F2
:1009300000200290029820F0004000F10040029058
:100940000298E168486101203EBD0000400000209F
:100950007CB5044600200190019820F01000103072
:100960000190E068806901998843E1688861E068E6
:10097000006A0090009800F00F0000EB800104F581
:100980005D7000EBC1050098C0F3434007282DD2ED
:10099000DFE800F02C04051D1E2C1F0027E0009846
:1009A000C0F30A1090B10098C0F30A122046E9681B
:1009B00002F067FBE8680099C1F30A110844E86097
:1009C000A8690099C1F30A110844A8610FE00EE07C
:1009D0000DE0082204F2CC51204602F052FBA86937
:1009E0000099C1F30A110844A86100E000BF00BFEC
:1009F000E068806901990843E168886101207CBD55
:100A000038B5044608480068C16820468847002079
:100A10000090009820F00800083000900098E168ED
:100A20004861012038BD0000400000201FB5044689
:100A3000002000904FF48970005D0090234800680A
:100A40004169204688472069806801900020039012
:100A5000039820F4006000F5006003900398E168BB
:100A60004861A07A70B3019800F0010050B340F2E1
:100A70001510005D012825D19DF80000032821D123
:100A800000200290029820F00100401C0290D4F84F
:100A90000C01006802990843D4F80C110860029810
:100AA00020F00200801C0290D4F80C01006802992A
:100AB0000843D4F80C1108600548006840F00600AF
:100AC00003490860012004B010BD00004000002070
:100AD00010ED00E030B587B004460020029006908B
:100AE0000590049003900190029820F00100401CB2
:100AF000029020694068029988432169486000217A
:100B0000204602F039FA00250BE0FF2104F118001D
:100B100050F82500816004F1540050F825008160F0
:100B20006D1C6078A842F0D84FF0FF3120698161D8
:100B300006986FF30F00401C0690069880B200F5EF
:100B40008030069006992069C161059820F0080060
:100B500008300590059820F00100401C059005988C
:100B600020F00200801C05900599206941610498DD
:100B700020F00100401C0490049820F00800083088
:100B80000490049820F00200801C049004992069CD
:100B90000161206900680390039820F4FE600390CF
:100BA000039920690160204601F038FF0020019080
:100BB000019820F4805000F5805001900198E16880
:100BC000486104480068016920468847012007B051
:100BD00030BD0000400000202DE9F04106460F46E0
:100BE0003946304602F062FA01214FF4897081558E
:100BF0000021801C8155002511E005EB850106F5DB
:100C00008E7000EBC104012060702570E58000202B
:100C1000E0704020A0600020E06060616D1C707892
:100C2000A842EAD8002510E005EB850106F55D70C5
:100C300000EBC104002060702570E580E07040206A
:100C4000A0600020E06060616D1C7078A842EBD865
:100C5000304601F0EDFD304601F01EFC002130462B
:100C600002F08CFA304601F0A4FC304602F04DF957
:100C7000BDE8F08138B504460020009007480068C0
:100C8000C16920468847009820F4801000F5801044
:100C900000900098E1684861012038BD40000020C4
:100CA00038B504460020009007480068016A2046D5
:100CB0008847009820F4001000F50010009000987C
:100CC000E1684861012038BD4000002038B5044685
:100CD000E068406800900098C0F3800020B10548AB
:100CE0000068816A204688470098E16848600120D2
:100CF00038BD00004000002030B5024615692B6960
:100D000015696C6B24FA01F505F0010543EAC5137A
:100D100002F1180555F82150AD6805EA030030BD11
:100D200038B5044608480068416A204688470020D4
:100D30000090009820F0804000F1804000900098E2
:100D4000E1684861012038BD400000202DE9F843EA
:100D500006460F4600250020009007EB870106F5A8
:100D60008E7000EBC104D4E90501451AA068A842C1
:100D700000D2A568E81C4FEA900806F1180050F868
:100D800027008069009029E0D4E90501451AA06890
:100D9000A84200D2A568E81C4FEA9008ABB2FAB2AC
:100DA0003046E16802F011FAE0682844E060A0698A
:100DB0002844A06106F1180050F8270080690090CF
:100DC000D4E90501884209D12178012000FA01F90E
:100DD0003069406B20EA090031694863009880B2AD
:100DE000404506D9D4E90510884202D2606900283E
:100DF000CAD10120BDE8F88310B51649164800F0A5
:100E000049F8012824D11548007B78B113480069BE
:100E100012494969884204D910480069401E0F49A7
:100E200008610C490C4800F01BF811E00B48007BEE
:100E300070B90A48006909498969884204D207489B
:100E40000069401C054908610249034800F008F8A0
:100E500010BD00000088002088600240700700205C
:100E60000246094B9A4201D2084801E00648103870
:100E700001F000531BB1064B0B40C36002E0044B72
:100E80000B40836070470000106402400060024025
:100E90007D0F7D0F70B50246002000240025124E04
:100EA000B24201D2114B01E00F4B103B104E0E40ED
:100EB00036B11E2606EAD124166806EA040502E0C9
:100EC000566906F0800501F000560EB15C6800E03E
:100ED0001C68084E344004EA010616B10DB1012029
:100EE00000E0002070BD000010640240006002407D
:100EF0003C0F3C0F7D0F7D0F7047F0B50A46002177
:100F00000023002400BF3DE0012505FA01F3156828
:100F100005EA03049C4234D105684F000326BE4015
:100F2000B543056015794E00B54006683543056048
:100F30001579012D02D01579022D16D185684F0043
:100F40000326BE40B543856055794E00B54086689E
:100F500035438560456801268E40B5434560456848
:100F600096798E40B6B235434560C5684F0003267A
:100F7000BE40B543C560D5794E00B540C66835431F
:100F8000C560491C1029BFD3F0BDF0B50023002473
:100F90004D07ED0E02FA05F3CE1000F1200555F8CD
:100FA00026504E07F70E0F26BE40B543CF1000F176
:100FB000200646F82750CE1000F1200555F826509F
:100FC00045EA0304CE1000F1200545F82640F0BDA7
:100FD00070B50A480468001D0568001D06683444A1
:100FE00054B108220649204600F07CF80422044946
:100FF0001031284600F076F870BD0000107AFF1F0F
:101000004601002070B506463048007800285BD1C4
:101010002F480068B0F5006F02D100202C4908600D
:101020002B4800682B490968884203D100202749D2
:10103000087070BD2648006826490968884206D9AC
:1010400023480068C0F500602349086006E0214895
:1010500000681F490968401A1F4908601E48006857
:10106000402811D91A48008885B2402418480068E1
:101070004030174908601848006840381649086031
:1010800001201249087018E01148008885B2124802
:10109000008884B20E4800680F49096808440C496A
:1010A000086000200C490860402C03D10220074949
:1010B000087002E0012005490870084842192346DB
:1010C00081213046FFF707FA00BFB2E76C0000202D
:1010D0006400002060000020680000202708002035
:1010E00000BFFEE730B50B46002100BF16E00A2422
:1010F000B4EB107F05D9302404EB107403F81140D1
:1011000005E0412404EB10740A3C03F8114000018F
:1011100000254C00641C1D554C1CE1B29142E6DBDD
:1011200030BD00BFFEE7704770B5002100230F22DD
:10113000C4781CB3174C246804F4E064C4F5E0647C
:10114000C4F30721C1F10404E3B20A4144789C408E
:10115000E1B28478144021430C07210E0E4C05782F
:101160006155047804F01F050124AC4005786D1129
:10117000AD0005F1E025C5F8004109E0047804F070
:101180001F050124AC40054D0678761145F8264030
:1011900070BD00000CED00E000E400E080E100E044
:1011A00010B5024800F00CFD10BD00007C010020CD
:1011B0007047000029B1064A12680243044B1A60C6
:1011C00004E0034A12688243014B1A607047000032
:1011D0003038024029B1064A12680243044B1A60B3
:1011E00004E0034A12688243014B1A607047000012
:1011F0003438024029B1064A12680243044B1A608F
:1012000004E0034A12688243014B1A6070470000F1
:1012100044380240F0B500210022002402250026B7
:101220000223324F3F6807F00C0121B1042905D099
:10123000082937D105E02E4F076036E02D4F0760B3
:1012400033E02A4F3F1F3F68C7F38056274F3F1FA9
:101250003F6807F03F036EB1264FB7FBF3F7DFF8A7
:101260008CC0ACF1040CDCF800C0CCF3881C07FB8C
:101270000CF40CE01E4FB7FBF3F7DFF870C0ACF1D5
:10128000040CDCF800C0CCF3881C07FB0CF4174FEF
:101290003F1F3F68C7F301477F1C7D00B4FBF5F794
:1012A000076002E0124F076000BF00BF0F4F3F68AA
:1012B00007F0F0010909104F7A5C0768D7404760D2
:1012C0000A4F3F6807F4E051890A0B4F7A5C476880
:1012D000D7408760054F3F6807F46041490B064FD0
:1012E0007A5C4768D740C760F0BD0000083802400C
:1012F0000024F40000127A00000000207047000073
:101300000CB50020019000903448006840F4803013
:101310003249086000BF3148006800F40030009096
:101320000198401C0190009818B90198B0F5A04FA1
:10133000F1D12A48006800F4003010B1012000907B
:1013400001E0002000900098012846D12348403059
:10135000006840F080502149403108602048006812
:1013600040F440401E4908601C48083000681B4992
:10137000083108600846006840F4004008600846EC
:10138000006840F4A05008601648091F0860081F54
:10139000006840F08070091F086000BF0F480068B7
:1013A00000F000700028F9D040F205700E49086086
:1013B0000A480830006820F0030008490831086036
:1013C0000846006840F00200086000BF034808308B
:1013D000006800F00C000828F8D10CBD003802406D
:1013E0000070004008544007003C02407047000075
:1013F00010B51548006840F47000134908601348A0
:10140000006840F001001149086000200F490831D0
:1014100008600E4800680E4908400C4908600D48F5
:10142000091D0860081F006820F48020091F08605B
:10143000002006490C310860FFF762FF4FF00060A2
:1014400001498039086010BD88ED00E00038024095
:10145000FFFFF6FE1030002410B540F2255107487A
:1014600000F01BF808B101F0C3FF0821034800F0A9
:1014700007F810B1014800F0C9F810BD004800405D
:1014800002460020B1F5007F00D100BF13880B4059
:101490000BB1012000E00020704770B50246002427
:1014A00000230025002040F66A16B14200D100BF9B
:1014B000C1F3421501F01F03012606FA03F3012DC3
:1014C00002D19689334006E0022D02D1168A3340BC
:1014D00001E0968A33400C12012606FA04F41688BD
:1014E000344013B10CB1012000E0002070BDF0B514
:1014F0000346002400260025002040F66A17B94262
:1015000000D100BF1846C1F3421401F01F060127A5
:1015100007FA06F5012C01D10C3004E0022C01D1B0
:10152000103000E014301AB107682F43076002E062
:101530000768AF430760F0BD2DE9FF4705460E463B
:101540000024A14600BFA046B08900B100BF2C8A8C
:1015500024F44054F08804432C82AC8941F20C609E
:101560008443B08831890843718908430443AC81BE
:10157000AC8A24F44074B0890443AC826846FFF717
:1015800049FE2048854202D01F48854202D1DDF83D
:101590000C9001E0DDF80890A88900F4004040B10B
:1015A00009EBC90000EB091031684900B0FBF1F705
:1015B00007E009EBC90000EB091031688900B0FBB6
:1015C000F1F76420B7FBF0F004012009642101FB6E
:1015D0001078A88900F4004040B1322000EBC80028
:1015E000B0FBF1F000F00700044308E0322000EB0C
:1015F00008106421B0FBF1F000F00F0004432C81CF
:10160000BDE8FF87001001400014014001468888B2
:10161000C0F308007047C1F308028280704770B5BC
:1016200004460D46D4F8E405294642682046904712
:10163000002070BD70B504460D464FF48970005D02
:10164000022802D0032812D100E000BF68880128D8
:101650000CD100214FF48C700151D4F8E4052946D7
:10166000826820469047204600F075F804E029463D
:10167000204600F021F800BF00BF70BD2DE9F04109
:1016800006460C46154600272B46224600213046CA
:10169000FEF7C6FE3846BDE8F0812DE9F04106466A
:1016A0000C46154600272B46224600213046FEF701
:1016B00012FF3846BDE8F08170B504460D46802122
:1016C0002046FEF7E4FE00212046FEF7E0FE20461D
:1016D00001F0A4F970BD2DE9F04104460E4615460F
:1016E0000027C4F89453C4F89053032140F211101A
:1016F00001552B46324600212046FEF791FE384622
:10170000BDE8F08170B504460025052140F21110B6
:10171000015500231A4619462046FEF781FE204651
:1017200001F07CF9284670BD2DE9F04104460E46D3
:1017300015460027C4F83C51C4F83851022140F244
:10174000111001552B46324600212046FEF7C3FEFC
:101750003846BDE8F08170B504460025042140F20A
:101760001110015500231A4619462046FEF7B3FE14
:10177000204601F053F9284670BD70B505460E4667
:10178000002E5DD105F58E7440F21110405D0228E7
:1017900049D1A168E069884217D9A168E069401A77
:1017A000E061E878012803D1D4E902100844E06040
:1017B000A08B82B22846E168FFF76FFF00231A462C
:1017C00019462846FEF72CFE2DE0A168206AB0FBE2
:1017D000F1F201FB1200A8B9A168206A884211D376
:1017E000D4E9080188420DD2002211462846FFF7AD
:1017F00054FF0020606200231A4619462846FEF76F
:101800000FFE10E0D5F8E405C06848B14FF48970C8
:10181000405D032804D1D5F8E405C168284688470F
:101820002846FFF76FFF4FF48B70405D012816D1FB
:10183000284600F091FA00214FF48B7041550EE0DC
:10184000D5F8E405406950B14FF48970405D032834
:1018500005D1D5F8E4053146426928469047002075
:1018600070BD70B505460E46A6BB05F55D7440F229
:101870001110405D03283DD1A168E069884217D965
:10188000A168E069401AE061E878012803D1D4E951
:1018900002100844E060A368E069984201D2E06960
:1018A00000E0A06882B22846E168FFF7E7FE21E089
:1018B000D5F8E405006948B14FF48970405D03280C
:1018C00004D1D5F8E4050169284688472846FFF782
:1018D00042FF0FE0FFE7D5F8E405806950B14FF40F
:1018E0008970405D032805D1D5F8E4053146826949
:1018F00028469047002070BD01460020704710B573
:101900000446D4F8E81548698047012140F21510D3
:101910000155002010BD10B50446D4F8E8158869BB
:101920008047D4F8E4050021426820469047002112
:1019300040F215100155002010BD000070B504469E
:101940000D46E888012804D029462046FFF7B4FE5A
:101950001AE04FF48970005D022802D003280DD1EF
:1019600005E0012209492046FFF7DEFE0BE00122D7
:1019700004F588712046FFF7D7FE04E0294620468B
:10198000FFF79AFE00BF00BF70BD000048000020B6
:10199000F8B504460E46F0880090708800120828BA
:1019A00062D2DFE800F061040C186161575CA07836
:1019B000D4F8EC150A6869469047054659E0A078C6
:1019C000D4F8E4158A6A6946904705460221697091
:1019D000C4F8F0554DE0B078062834D2DFE800F0C6
:1019E000030B131B232BA078D4F8EC154A68694627
:1019F000904705462CE0A078D4F8EC158A68694633
:101A00009047054624E0A078D4F8EC15CA686946EA
:101A1000904705461CE0A078D4F8EC150A696946A1
:101A20009047054614E0A078D4F8EC154A69694659
:101A3000904705460CE0A078D4F8EC158A69694611
:101A40009047054604E031462046FFF735FEF8BDD5
:101A500000BF0EE031462046FFF72EFEF7E7314685
:101A60002046FFF729FEF2E731462046FFF724FE25
:101A7000EDE700BFBDF8000088B1F08878B1F088CC
:101A8000BDF80010884202DDBDF8000000E0F088DB
:101A90000090BDF8002029462046FFF745FE00BF14
:101AA000D5E70146002002E0421CD0B2491C0A786A
:101AB000002AF9D17047000070B504460D464FF476
:101AC0008970005D022802D0032813D100E000BF16
:101AD00001200C4908604FF48C70005920B1084671
:101AE000006840F002000860022206492046FFF725
:101AF0001BFE04E029462046FFF7DEFD00BF00BFC5
:101B000070BD00004C0000202DE9F04104460D4658
:101B100017460026FCB12046FFF7C3FF022101EB68
:101B2000400038803A783046711CCEB22A540322E5
:101B30003046711CCEB22A540AE014F8012B30460C
:101B4000711CCEB22A5400223046711CCEB22A54E7
:101B500020780028F1D1BDE8F0812DE9F04104465C
:101B60000F4615461E46DDF81880204600F028FC7A
:101B70002046FFF7C1FEC4F8E465C4F8E885C4F860
:101B8000EC5539462046FFF727F8D4F8E8150868E1
:101B90008047204600F002FCBDE8F08110B5044605
:101BA000D4F8E405016A20468847002010BD10B52E
:101BB0000446D4F8E405416A20468847002010BD59
:101BC0007CB505460024284601F02EFA002875D081
:101BD000284601F034FA0190019808B900207CBD34
:101BE0000198C0F3C04018B12846FEF7FBFD04433E
:101BF0000198C0F3804018B12846FEF75FFD04430A
:101C00000198C0F3400050B100200090009820F0EF
:101C10000200801C00900098E968486100BF0198AC
:101C2000C00F18B12846FEF75DFE04430198C0F3CB
:101C3000C02018B12846FEF7F9FE04430198C0F30E
:101C4000C00018B12846FEF7DBFE04430198C0F33C
:101C5000001018B12846FEF77BFE04430198C0F33C
:101C6000003018B12846FEF735FF04430198C0F351
:101C7000403018B12846FEF755FC04430198C0F3E4
:101C8000005018B12846FEF7F5FF04430198C0F351
:101C9000405018B12846FFF703F804430198C0F3F9
:101CA000807018B12846FFF73BF804430198C0F351
:101CB000800018B12846FFF709F8044320468EE754
:101CC00090F8CC250A7090F8CD254A7090F8CE3562
:101CD00090F8CF2503EB02224A8090F8D03590F897
:101CE000D12503EB02228A8090F8D23590F8D325D3
:101CF00003EB0222CA80CB884FF4A0721350012359
:101D000040F211121354704710B5044600234022CC
:101D100019462046FEF750FB002340228021204632
:101D2000FEF74AFB01214FF489700155A078D4F8E1
:101D3000E82551688847002010BD10B50446D4F846
:101D4000E8150869804740F21310015D401E0155F7
:101D500003210155002010BD0146034802680869AF
:101D600042600020704700001000002010B50446BB
:101D7000D4F8E405C06920B1D4F8E405C16920466F
:101D80008847002010BD70B504460D46A88818BBD2
:101D9000E88808BBA87800F07F064FF48970005DE2
:101DA000032804D129462046FFF786FC18E04FF4AB
:101DB0008A70065531462046FEF75BFB2046FFF74A
:101DC000CAFC26B102214FF48970015508E00121B7
:101DD0004FF48970015503E029462046FFF76CFC5B
:101DE00070BD70B504460D46D4F8E4052946026876
:101DF00020469047D4F8E81588688047002070BDD9
:101E000070B504460D46A878304908700846007839
:101E1000012804DD29462046FFF74EFC55E04FF42B
:101E20008970005D022802D0032848D117E02748B6
:101E3000007880B12548007884F8100103214FF420
:101E400089700155214801782046FFF7CAFF2046D6
:101E5000FFF781FC02E02046FFF77DFC34E01B48E1
:101E6000007880B902214FF4897001551748007835
:101E700084F81001154801782046FFF7D0FB204672
:101E8000FFF769FC1AE094F81001104909788842BC
:101E900011D094F810112046FFF7C1FB0B480078D1
:101EA00084F81001094801782046FFF79AFF204680
:101EB000FFF751FC02E02046FFF74DFC04E0294605
:101EC0002046FFF7F9FB00BF00BF70BD50000020A7
:101ED000F8B504460D460026688801280DD1012179
:101EE0004FF48C700151D4F8E405294682682046ED
:101EF00090472046FFF72FFC3FE0688802283CD13E
:101F00002879D0BB206940680090A8880612062E68
:101F100022D2DFE806F02103090F151B009820F0FC
:101F20007000103000901DE0009820F0700020300C
:101F3000009017E0009820F070003030009011E021
:101F4000009820F07000403000900BE0009820F0E6
:101F500070005030009005E0009820F070001030C4
:101F6000009000BF00BF05480099016001214FF4B7
:101F70008B7001552046FFF7EEFBF8BD10000020E6
:101F80001CB5044669462046FFF79AFE9DF80000FE
:101F900000F01F0020B1012807D002280FD109E06E
:101FA0006946204600F016F811E06946204600F028
:101FB00007F90CE06946204600F046F807E09DF876
:101FC000000000F080012046FEF761FA00BF00BF6C
:101FD00000201CBD70B505460C46002660780A2816
:101FE00029D2DFE800F01923281E280A0528140F3B
:101FF00021462846FFF7CCFC22E021462846FFF781
:10200000C2FE1DE021462846FFF7FAFE18E02146F1
:102010002846FFF793FC13E021462846FFF74CFDC6
:102020000EE021462846FFF753FF09E021462846E7
:10203000FFF700FB04E021462846FFF73DFB00BF09
:1020400000BF304670BD00002DE9F04105460E4648
:1020500000273479307800F06000202808D1D5F8C6
:10206000E40531468268284690473846BDE8F0814D
:102070007078002857D001282BD0032875D14FF451
:102080008970405D022802D003281BD107E02CB1E3
:10209000802C03D021462846FEF7F9F917E0708816
:1020A00030B92CB1802C03D021462846FEF7EFF939
:1020B000D5F8E40531468268284690472846FFF760
:1020C0004AFB04E031462846FFF7F6FA00BF00BF9E
:1020D00070E04FF48970405D022802D003281BD1C4
:1020E00007E02CB1802C03D021462846FEF7CFF91B
:1020F00017E0708878B95CB1802C09D02146284659
:10210000FEF736F9D5F8E40531468268284690474F
:102110002846FFF720FB04E031462846FFF7CCFABB
:1021200000BF00BF46E04FF48970405D022802D036
:10213000032837D107E02CB1802C03D02146284654
:10214000FEF7A5F933E004F08000802812D104F0F6
:102150007F0000EB800105F58E7000EBC1008078F8
:1021600020B101201549086016E022E00020134943
:10217000086011E004F0800070B904EB840105F5FB
:102180005D7000EBC100807818B101200B49086038
:1021900002E0002009490860022208492846FFF7AA
:1021A000C3FA04E031462846FFF786FA00BF00BFB5
:1021B00000E000BF00BF384658E7000044000020A0
:1021C00070B504460D4600264FF48970005D032863
:1021D00014D1287901280CDCD4F8E405294682685A
:1021E00020469047E88840B93EB92046FFF7B3FA49
:1021F00003E029462046FFF75FFA04E0294620461F
:10220000FFF75AFA00BF00BF304670BD10B5044654
:102210004FF48970015D401C01550421401E015599
:10222000D4F8E815C8688047002010BD70B5054691
:102230000C462DB92246064906A0FFF765FC04E0CE
:102240002246034903A0FFF75FFC014870BD000070
:102250003810002056435020436F6E6669670000B7
:1022600070477047024612200880014870470000FE
:1022700024010020704710B1012802D100E001E0E4
:1022800000E000BF00BF7047704770477047000014
:1022900070B505460C462DB92246064906A0FFF743
:1022A00033FC04E02246034903A0FFF72DFC01485C
:1022B00070BD00003810002056435020496E7465F0
:1022C00072666163650000000246042008800148D0
:1022D000704700004001002070B505460C462246BC
:1022E000024903A0FFF710FC004870BD3810002021
:1022F00053544D6963726F656C656374726F6E6978
:102300006373000070B505460C462DB92246064998
:1023100006A0FFF7F9FB04E0224603490CA0FFF7F3
:10232000F3FB014870BD00003810002053544D33BA
:1023300032205669727475616C20436F6D506F72F4
:102340007420696E204853206D6F646500000000A2
:1023500053544D3332205669727475616C20436F4B
:102360006D506F727420696E204653204D6F646506
:102370000000000070B505460C461A202080FEF7CC
:1023800027FE014870BD00004401002002464320A2
:102390000880014870470000A400002038B50446BA
:1023A00043208DF8000001208DF8010003208DF8F6
:1023B000020001208DF803006846FEF7B5FE38BD27
:1023C0001CB5044601210846FEF7F4FE4FF4C05048
:1023D000009003208DF8050002208DF804000020F5
:1023E0008DF806008DF8070069461E48FEF785FD4A
:1023F0000A220B211B48FEF7C8FD0A220C211948AE
:10240000FEF7C3FD4FF40070009003208DF8050027
:1024100000208DF8040001208DF8060000208DF8C2
:10242000070069460F48FEF768FD4FF48060009092
:1024300001208DF806008DF8070003208DF80500B7
:1024400069460848FEF759FD0A2211460548FEF77D
:102450009CFD01218803FEF7CDFE01218020FEF7BF
:10246000B9FE1CBD0000024010B504464FF47A715D
:1024700004FB01F000F001F810BD10B50022C0EB24
:102480000013DB000724B3FBF4F100BF531C1A4612
:102490008B4200D910BDF9E73EB504460025002067
:1024A000029001900090207A01283DD1E068806B75
:1024B0000190019820F480300190607A28B1019851
:1024C00020F4801000F5801001900198E168886385
:1024D00000200290E068C0680290029820F040005E
:1024E0000290029820F480000290029820F40030BC
:1024F0000290029820F4002002900298E168C860DF
:10250000204600F05DF9E07801283DD1009820F0E8
:102510001E000A300090009820F02000203000902B
:102520000098E16888602FE0E068C0680290029837
:1025300020F04000403002900298E168C8602046D8
:1025400000F03EF900200190019820F4803000F561
:1025500080300190019820F4802000F580200190C7
:10256000019820F4002000F500200190607A28B145
:10257000019820F4801000F5801001900198E16826
:1025800088631420FFF770FFE07801280FD1E0681E
:1025900080680090009820F01E000A30009000989B
:1025A00020F02000203000900098E16888602846E4
:1025B0003EBD70B588B00446002600200790069006
:1025C0000590049003900021D4F80C01016020696B
:1025D00000680690069820F4C0500690069920697D
:1025E0000160E07A01283FD10321204600F010FD70
:1025F0008020E1684862059880B200F500100590DF
:1026000005986FF30F00803005900598E1688862A7
:10261000059800EB1041049861F30F0004900498B2
:1026200080B200F5000004900498E168C1F804014C
:10263000049800EB104161F30F000490049880B2FD
:1026400000F5001004900499E068C0F8081104989F
:1026500000EB104161F30F000490049880B20490E5
:102660000499E068C0F80C111021204600F084FCA9
:10267000204600F05BFC0021206901612069416176
:10268000491E2069816100212069C16100252CE07B
:1026900004F1180050F82500006807900798C00F53
:1026A00070B100200790079820F0804000F1804032
:1026B0000790079820F0006000F10060079001E0AB
:1026C0000020079004F1180050F8250007990160D8
:1026D000002104F1180050F825000161FF2104F1E8
:1026E000180050F8250081606D1C6078A842CFD892
:1026F00000252CE004F1540050F8250000680190FA
:102700000198C00F70B100200190019820F0804026
:1027100000F180400190019820F0006000F100601D
:10272000019001E00020019004F1540050F82500D0
:1027300001990160002104F1540050F82500016165
:10274000FF2104F1540050F8250081606D1C607871
:10275000A842CFD800200390039820F4807000F5A1
:1027600080700390206900690399884308432169B8
:102770000861E07801281DD100200290029820F025
:102780000100401C0290029820F00200801C029080
:102790004021029861F38A000290029820F4803070
:1027A00000F580300290029861F35940029002993E
:1027B00020690163204600F050FB304608B070BD30
:1027C000F8B50446002600250020009000BF032035
:1027D000FFF753FEE06800690090681C0546134946
:1027E000884201D90020F8BD0098C00F0028EED023
:1027F0000025009820F00100401C00900098E1683E
:10280000086100BFE06800690090681C0546074940
:10281000884200D904E0009800F001000028F1D1BE
:1028200000BF0320FFF729FE3046DCE7400D030020
:1028300008B50146002000220092009A22F0010211
:10284000521C0092CA689268009B9A43CB689A60B7
:1028500008BD0EB501460020002200920A69926868
:1028600002928A6912680192029AC2F3410232B15D
:10287000012A05D0022A09D0032A0DD101E000BFA8
:1028800000BF019A6FF30A0201920AE0019A6FF306
:102890000A02D21C019204E0019A6FF30A0201922B
:1028A00000BF00BF019B8A691360009A22F4807206
:1028B00002F5807200920A695268009B9A431A439B
:1028C0000B695A600EBDFCB50246002000240025AD
:1028D000019500954D78012D52D193691D680195A0
:1028E0001D6900954D6955B9009D25F07F0500953E
:1028F000009D25F4002505F50025009516E08E685D
:102900004D69B54207D98D684D610E7A009D66F319
:102910000605009504E00E7D009D66F30605009512
:10292000009D25F4002505F500250095009D1D61FD
:10293000D578012D06D10F7802F1180555F82750EA
:102940000E696E61019D25F0806505F18065019538
:10295000019D25F0004505F100450195019D1D6093
:10296000D578002D59D14D69002D56D00E7801250E
:10297000B5402C4315696D6B2543166975634CE0B2
:102980000E7802F1540555F826502D6801950E7801
:1029900002F1540555F826502D6900954D695DB931
:1029A0000E7A009D66F306050095009D25F400252E
:1029B00005F5002500950CE08D684D610E7A009DAF
:1029C00066F306050095009D25F4002505F5002514
:1029D00000950F7802F1540555F82750009E2E619E
:1029E000D578012D06D10F7802F1540555F82750FE
:1029F0000E696E61019D25F0806505F18065019588
:102A0000019D25F0004505F1004501950F7802F183
:102A1000540555F82750019E2E60FCBD0CB50021D1
:102A20000191019921F0C04101F1C0410191019949
:102A300021F4002101F500210191019921F07F018C
:102A400018310191019A416D0A61C178012915D1AE
:102A50000021009100F2CC51426D5161416D096835
:102A60000091009921F0004101F1004100914FF0E7
:102A700080210091009A416D0A6000BF0CBD3CB5F9
:102A8000024600200024019400944C78012C0CD1C3
:102A90000D7802F1180454F825300D780124AC406B
:102AA000009D64F30F0500950BE00D7802F15404CE
:102AB00054F825300D780124AC40009D64F31F4587
:102AC00000951C680194019CC4F3C034E4B90D89DD
:102AD000019C65F30A040194CD78019C65F393444D
:102AE00001948D79019C65F399540194019C24F023
:102AF000805404F180540194019C24F4004404F5B2
:102B000000440194019C1C601469E469009D2C43FD
:102B10001569EC613CBD38B50346002000240094E3
:102B20004C78012C05D10D7803F1180454F82520B8
:102B300004E00D7803F1540454F82520146800943F
:102B4000009C24F400140094CC78032C02D0CC78A0
:102B5000022C05D1009C24F0805404F18054009490
:102B6000009C146038BD3CB502460020002401944E
:102B700000944C78012C0CD10D7802F1180454F813
:102B800025300D780124AC40009D64F30F050095BD
:102B90000BE00D7802F1540454F825300D7801242F
:102BA000AC40009D64F31F450095019C24F4004453
:102BB0000194019C1C601469E469009DAC43156993
:102BC000EC613CBD38B503460A4600200024009461
:102BD0005478012C18D1157803F1180454F82510F5
:102BE0000C680094009CE40F2CB1009C24F08044FD
:102BF00004F180440094009C24F4001404F50014B3
:102C00000094009C0C600EE0157803F1540454F815
:102C100025100C680094009C24F4001404F50014A2
:102C20000094009C0C6038BDFEB505460C4600269D
:102C30000027002002900190607801287ED1217841
:102C400005F1180050F8210000680290217805F184
:102C5000180050F8210000690190606948B9019896
:102C60006FF3120001900121019861F3DC400190A3
:102C700017E06169019861F3120001906069401EDC
:102C8000A1680844B0FBF1F1019861F3DC400190C8
:102C9000E078012805D1019820F0C04000F10050F3
:102CA0000190227805F1180050F822000199016185
:102CB000E878012807D1227805F1180050F82200A1
:102CC000216941610DE0E07801280AD0606940B1D6
:102CD0002178012000FA01F72869406B38432969FF
:102CE0004863E078012813D1286980680090009833
:102CF000C0F3002030B9029820F0005000F10050DD
:102D0000029005E0029820F0805000F1805002907F
:102D1000029820F0806000F180600290029820F01C
:102D2000004000F100400290227805F1180050F8B0
:102D3000220002990160E078012800E008E070D1EB
:102D4000A08A83B222782846E16800F03EFA68E063
:102D5000217805F1540050F8210000680290217894
:102D600005F1540050F8210000690190606950B9E4
:102D7000A168019861F3120001900121019861F3AB
:102D8000DC40019017E0A068401E61690844A1681A
:102D9000B0FBF1F1019861F3DC4001900198C0F3C0
:102DA000C940A1684843019960F31201019101985B
:102DB000C0F312006061227805F1540050F822003F
:102DC00001990161E878012806D1227805F15400C3
:102DD00050F8220021694161E07801280ED1607924
:102DE00030B1029820F0005000F10050029005E050
:102DF000029820F0805000F180500290029820F05C
:102E0000806000F180600290029820F0004000F1A4
:102E100000400290227805F1540050F822000299F7
:102E200001603046FEBD08B500210091491EC26810
:102E300051606FF08041C2685161009921F00041FA
:102E400001F100410091009921F4006101F5006158
:102E500000910099C268916108BD38B5044600250B
:102E600000200090E16888616FF08040E16848616F
:102E70002046FFF7D8FFE07820B9009820F0100036
:102E800010300090009820F4006000F50060009081
:102E9000009820F4805000F580500090009820F4B5
:102EA000005000F500500090009820F4802000F5BC
:102EB00080200090009820F4002000F50020009071
:102EC000009820F0080008300090009820F480104E
:102ED00000F580100090009820F4001000F500101C
:102EE0000090009820F0804000F180400090009811
:102EF00020F00400001D0090E0688069009988437C
:102F00000843E1688861284638BD08B501460020BD
:102F100000220092009A22F00102521C0092CA681C
:102F20009268009B1A43CB689A6008BDF8B50446C6
:102F30000025002600200090009820F0100010309E
:102F400000900098E168086100BFE06800690090A7
:102F5000701C06460749884200D904E00098C0F377
:102F600000100028F1D100BF0320FFF786FA2846A1
:102F7000F8BD0000400D0300F8B504460D460026DC
:102F8000002700200090009820F0200020300090C2
:102F9000009865F38A1000900098E168086100BF0E
:102FA000E06800690090781C07460749884200D90C
:102FB00004E00098C0F340100028F1D100BF0320C6
:102FC000FFF75BFA3046F8BD400D030008B5014637
:102FD00000200A6992680092009AC2F3410232B15D
:102FE000012A06D0022A07D0032A07D102E00320D3
:102FF00006E000BF022003E0012001E0022000BF44
:1030000000BF08BD0146C868406900F00100704774
:1030100008B5026912680092009A61F301020092F9
:10302000009B0269136008BD00B502461046FFF719
:10303000E9FF012801D0012000BD0020FCE7014686
:103040000020CA685069CA689269104070470146FA
:10305000086982690869C069024090B270470146F8
:10306000086982690869C0690240100C704702460D
:1030700002F1540353F82130986813695B691840D2
:103080007047F0B503460024D01CC71700EB9777B4
:10309000BD10D3F8D06000BF03E030680860091DA0
:1030A000641CAC42F9D30846F0BD000070B502467E
:1030B0000C46002300200025D57001259570402581
:1030C0009580012C0CD14FF0A0430125D572082525
:1030D0001570042555709D15D580022515720AE0DE
:1030E0004CB9254B0025D5720C2515700625557059
:1030F0004FF4A065D580D36003F50065156100210C
:1031000010E003F5106505EB411602F1180545F8CE
:10311000216003F5306505EB411602F1540545F8D1
:103120002160491C55788D42EBD803F580655561C7
:103130004035C2F8CC50002108E003F5A06505EB4E
:10314000411602F1900545F82160491C15788D4221
:10315000F3D8002108E003F5805505EB013602F1B4
:10316000D00545F82160491C15788D42F3D803F548
:103170006065C2F80C5170BD00000440F8B504460B
:103180000D460026E068C0680090009820F00050CE
:103190000090009820F080400090012D06D100980A
:1031A00020F0005000F10050009006E02DB900988A
:1031B00020F0804000F1804000900098E168C860F5
:1031C0003220FFF751F93046F8BD2DE9F0410446B1
:1031D0000026E078B0B900270020DD1C4FEAE57832
:1031E00005EB98784FEAA80704F1D00555F822C0FE
:1031F00000BF04E00D68CCF80050091D401CB84227
:10320000F8D300BF3046BDE8F08100BFFEE7000004
:1032100010B50446BCB94FF4E1303C4908600020C9
:103220008880C8804FF4C0600881002088810C200D
:1032300048813748FEF780F9012240F22551344891
:10324000FEF755F95FE03348007920B1012806D038
:1032500002280ED108E000202C49C8800EE04FF46F
:1032600040502A49C88009E04FF400502749C880DF
:1032700004E00020FFF7CCFF022010BD00BF25486E
:10328000407920B1012806D002280ED108E00020A4
:103290001E4908810EE04FF480601C49088109E056
:1032A0004FF4C0601949088104E00020FFF7B0FF27
:1032B0000220E2E700BF17488079072802D00828DB
:1032C00010D103E000201149888010E00F480089E8
:1032D00018B900200D49888003E04FF480500B4955
:1032E000888004E00020FFF793FF0220C5E700BFBD
:1032F0000848006805490860002088810C20488142
:103300000348FEF719F90020B7E700002810002055
:1033100000480040EC00002070B505460C461646FB
:10332000042D15D007DC7DB1012D0ED0022D0DD05E
:10333000032D3FD10BE0202D0BD0212D1FD0222DAE
:1033400036D0232D36D134E035E034E033E032E0BE
:1033500031E02078617840EA0120A17840EA01401C
:10336000E17840EA016015490860207908716079C8
:103370004871A07988710120FFF74AFF1BE00F48D0
:10338000007820700D480088000A60700B480068C3
:10339000000CA07009480068000EE0700748007932
:1033A000207106484079607104488079A07102E07C
:1033B00001E000E000BF00BF002070BDEC00002075
:1033C00070B505460E4600240BE0295D0748FEF760
:1033D00022F900BF80210548FEF752F80028F9D0F5
:1033E000641CB442F1D3002070BD000000480040CE
:1033F00010B513488079072809D11248FEF706F95D
:1034000000F07F001049114A126888540AE00C4805
:103410008079082806D10B48FEF7F8F80A490B4ACC
:103420001268885409480068401C0849086008462A
:103430000068B0F5006F01D100200860002010BDC9
:10344000EC00002000480040270800206000002019
:103450000020704708B54FF4E130124908600020A1
:103460008880C8804FF4C0600881002088810C20CB
:1034700048810D48FEF760F8012240F225510A48C4
:10348000FEF735F827208DF8000000208DF80100A8
:103490008DF8020001208DF803006846FDF744FE18
:1034A000002008BD28100020004800401CB5002066
:1034B00001900948094B0A4A012100900948FEF78A
:1034C0004CFB08E00198411C0191B0F5801F02D12E
:1034D00000BF00200190F5E7600100207800002087
:1034E000080100207C0100202DE9F04106460F462E
:1034F00025480078012838D12448006818B90020F0
:103500002149087031E02148006840280ED9204840
:10351000008885B240241E48006840301C4908607D
:103520001A48006840381949086014E018480088B3
:1035300085B21648008884B21548006813490968A6
:10354000084413490860002010490860402C02D14B
:1035500002200D4908700F48421923468121304648
:10356000FCF7B9FF0020BDE8F08107480078022889
:1035700008D100231A4681213046FCF7ACFF002019
:10358000014908700020EEE76C0000206800002070
:10359000640000202708002070B504460D4605EBA6
:1035A000850104F55D7000EBC100008B86B2064812
:1035B00031460269054890474023044A01212046CC
:1035C000FCF72EFF002070BDF4000020E70700206C
:1035D00070B504460D4681212046FCF7A4FE01216A
:1035E0002046FCF7A0FE82212046FCF79CFE024903
:1035F00048688047002070BDF400002010B50446E4
:1036000008480068FF280AD0074883680748084927
:103610000268044800689847FF20024908600020BB
:1036200010BD000070000020F40000207400002095
:103630005800002070B505460E4602234022812125
:103640002846FCF7B9FE0223402201212846FCF758
:10365000B3FE0323082282212846FCF7ADFE084C66
:1036600002202071002060710649086880474023CD
:10367000054A01212846FCF7D3FE002070BD00005A
:1036800024010020F4000020E707002010B50446C4
:10369000074801680068401C054A1060052905D1EB
:1036A0000020114608602046FDF7ACFC002010BD4C
:1036B000E800002070B505460C46207800F0600058
:1036C00068B3202825D1E088D8B1207800F08000A8
:1036D00058B1E288607823498B6823499847E2888B
:1036E00021492846FEF720F811E060781F4908605C
:1036F000E0881F490860E2881B492846FDF7EBFF78
:1037000005E06078174900228B6811469847002031
:1037100070BD21462846FDF7CFFF0220F8E760780C
:10372000062804D00A2808D00B2818D10BE021461F
:103730002846FDF7C1FF0220EAE701220D4928468D
:10374000FDF7F2FF0BE0A078012803DAA078094921
:10375000086003E021462846FDF7AEFF00BF00BF2A
:103760000020D5E7F4000020580000207000002061
:1037700074000020540000204FF04070E1EE100A69
:1037800070470000A4370008000000207C01000002
:10379000C4010008943800087C0100201C160000B9
:1037A00020020008412D0102030404450607080910
:1037B00013631814087B171408811F14086D1D1B50
:1037C000080904130D221B083B08139D1B1B08AF9F
:1037D000041AFF24131719230814022C2072FF1354
:1037E00035361408D1351B08B508411AFD0C13E90C
:1037F000341B0899085A8D14411B8D2380130243F2
:103800001302012DC0320904AD190B130524161043
:1038100001052401100901042402020524061701F0
:10382000070582030815FF09040133020A2E070564
:10383000010240072A81076133C20112081A556844
:103840001A51041319331B08F1041AC1041A65E054
:103850001AC9041AD9041A05741A75041A2D0C1AF7
:1038600091041A1253311E4083044057894E0203BB
:10387000010A06121201071A040309041A031A8D19
:10388000401A77041A61041A8B041A89041A630413
:043890001A750400A1
:040000050800018965
:00000001FF
