:020000040800F2
:10000000B01F002069020008BB110008751100082C
:10001000B7110008230300080332000800000000A5
:100020000000000000000000000000009113000824
:10003000F90D0008000000004512000881140008B6
:10004000830200088302000883020008830200087C
:10005000830200088302000883020008830200086C
:10006000830200088302000883020008830200085C
:10007000830200088302000883020008830200084C
:10008000830200088302000883020008830200083C
:10009000830200088302000883020008830200082C
:1000A000830200088302000883020008830200081C
:1000B000830200088302000883020008830200080C
:1000C00083020008830200088302000883020008FC
:1000D00083020008830200088302000883020008EC
:1000E00083020008830200088302000883020008DC
:1000F00083020008830200088302000883020008CC
:1001000083020008830200088302000883020008BB
:1001100083020008830200088302000883020008AB
:10012000830200088302000883020008830200089B
:10013000830200088302000883020008830200088B
:1001400083020008830200088302000835120008B9
:10015000830200088302000883020008830200086B
:10016000830200088302000883020008830200085B
:10017000830200088302000883020008830200084B
:10018000830200088302000800F002F800F05CF827
:100190000AA090E8000C82448344AAF10107DA45E2
:1001A00001D100F051F8AFF2090EBAE80F0013F0D8
:1001B000010F18BFFB1A43F0010318472C3700004A
:1001C0004C3700000A444FF0000C10F8013B13F0CC
:1001D000070408BF10F8014B1D1108BF10F8015BA0
:1001E000641E05D010F8016B641E01F8016BF9D193
:1001F00013F0080F1EBF10F8014BAD1C0C1B09D1EA
:100200006D1E58BF01F801CBFAD505E014F8016B5B
:1002100001F8016B6D1EF9D59142D6D370470000ED
:100220000023002400250026103A28BF78C1FBD8FF
:10023000520728BF30C148BF0B6070471FB503F09D
:100240004DFB1FBD10B510BD00F031F81146FFF792
:10025000F5FF03F0EFF800F04FF803B4FFF7F2FFFB
:1002600003BC00F057F800000948804709480047E0
:10027000FEE7FEE7FEE7FEE7FEE7FEE7FEE7FEE756
:10028000FEE7FEE704480549054A064B70470000B3
:100290008514000889010008B0190020B01F002053
:1002A000B01B0020B01B0020704770477047754698
:1002B00000F02CF8AE4605006946534620F00700D2
:1002C000854618B020B5FFF7DDFFBDE820404FF0B0
:1002D00000064FF000074FF000084FF0000B21F030
:1002E0000701AC46ACE8C009ACE8C009ACE8C009FD
:1002F000ACE8C0098D46704710B50446AFF30080E6
:100300002046BDE81040FFF7A8BF00000048704736
:100310004C19002001491820ABBEFEE72600020060
:10032000704700BFFEE770B506460C4604F080003B
:10033000802808D104F07F0000EB800106F58E7064
:1003400000EBC10507E004F07F0000EB800106F53B
:100350005D7000EBC10504F07F00287004F08000A0
:10036000C00968702946304602F0F9FB002070BDD4
:1003700070B506460C4604F08000802808D104F0D1
:100380007F0000EB800106F58E7000EBC10505E0F3
:1003900004EB840106F55D7000EBC1050020A87038
:1003A00004F07F002870C4F3C010687029463046FE
:1003B00002F0ADFB002070BD2DE9F04106460D4670
:1003C00090461F4605F08000802808D105F07F0088
:1003D00000EB800106F58E7000EBC10407E005F02C
:1003E0007F0000EB800106F55D7000EBC10405F0B5
:1003F0007F00207005F08000C0096070C4F808809C
:10040000E770607808B12078E080022F01D10020E9
:1004100020712146304602F02EFB0020BDE8F0811D
:100420002DE9F04105460E461746984606F07F0036
:1004300000EB800105F55D7000EBC104E760C4F8D6
:1004400014800020A061607006F07F002070E878C2
:10045000012800D12761207820B92146284602F0E2
:100460002EFA03E02146284602F0DAFB0020BDE820
:10047000F08108B500220092009A61F30A120092FE
:1004800002691268009B1A4303691A6008BD70B5BF
:1004900006460C4604F08000802808D104F07F0056
:1004A00000EB800106F58E7000EBC10505E004EB62
:1004B000840106F55D7000EBC1050120A87004F011
:1004C0007F002870C4F3C01068702946304602F0DF
:1004D00075FB002070BD2DE9F04107460D4616461C
:1004E000984605F07F0000EB800107F58E7000EB69
:1004F000C1040120607005F07F002070E660266175
:100500000020A061C4F81480207820B92146384624
:1005100002F0D5F903E02146384602F081FB0020C5
:10052000BDE8F08130B587B00546594C284602F049
:100530008CF901A800F0B8FE029CE868C06805903C
:10054000059820F4705005900598E968C860284621
:1005500002F038FD03280BD10020A8704FF4007082
:10056000A880059820F4705000F5105005907EE0AA
:100570000120A8704020A8804648844209D34648FC
:10058000844206D2059820F4705000F56050059022
:100590006DE04148844209D34048844206D2059820
:1005A00020F4705000F55050059060E03B488442C4
:1005B00009D33B48844206D2059820F4705000F5D8
:1005C0004050059053E03648844209D33548844270
:1005D00006D2059820F4705000F53050059046E0A2
:1005E0003048844209D33048844206D2059820F42A
:1005F000705000F52050059039E02B48844209D313
:100600002A48844206D2059820F4705000F5105014
:1006100005902CE02548844209D32548844206D21F
:10062000059820F4705000F5005005901FE0204818
:10063000844209D31F48844206D2059820F47050A2
:1006400000F5E050059012E01A48844209D31A4898
:10065000844206D2059820F4705000F5C0500590F1
:1006600005E0059820F4705000F5A050059005981D
:10067000E968C86000200690069820F4005000F554
:10068000005006900698E9684861012007B030BD27
:10069000007A030AC0E1E4000024F400E0EC040165
:1006A00000C31801002D310140A44C0100366E0139
:1006B00040E2950180C3C90160600B02F8B50546B0
:1006C000002400200090284602F0BDFC064681E090
:1006D00006F0010000287BD0E1B2284600F00CFBB8
:1006E0000090009800F0010030B3012000FA04F7F8
:1006F0002869406BB843296948630020009000983E
:1007000020F00100401C009005F1180050F8240072
:1007100000998160E1B232480068426828469047FB
:10072000E878012808D13CB940F21110405D042856
:1007300002D1284602F06EF90098C0F3C00060B103
:1007400000200090009820F008000830009005F18B
:10075000180050F82400009981600098C0F3001040
:1007600060B100200090009820F010001030009040
:1007700005F1180050F82400009981600098C0F33A
:10078000801060B100200090009820F040004030C0
:10079000009005F1180050F824000099816000983D
:1007A000C0F3400060B100200090009820F00200EB
:1007B000801C009005F1180050F824000099816019
:1007C0000098C0F3C01018B12146284600F0BEFAC8
:1007D000641C7608002E7FF47BAF0120F8BD00007A
:1007E000400000207CB504460025002001902046F2
:1007F00002F031FC06466FE006F00100002869D0E7
:10080000E9B2204602F02FFC0190019800F00100AF
:10081000C8B300200190019820F00100401C019015
:1008200004F1540050F8250001998160E078012816
:1008300017D104F1540050F825000069009005EB31
:10084000850104F55D7000EBC10080680099C1F37B
:100850001201411A05EB850204F55D7000EBC20040
:100860008161E9B21E480068026820469047E0783E
:10087000012808D13DB940F21110005D052802D1D0
:10088000204602F0C7F80198C0F3400060B1002094
:100890000190019820F00200801C019004F15400A6
:1008A00050F82500019981600198C0F3C00088B11B
:1008B0000B48006881682046884700200190019815
:1008C00020F008000830019004F1540050F8250091
:1008D000019981606D1C7608002E8DD101207CBDB0
:1008E000400000203EB50446A07A78B1D4F80C014F
:1008F00000680090009820F002000090009820F01E
:10090000010000900099D4F80C01016000200190D2
:10091000019820F00100401C019020694068019975
:1009200088432169486009480068816920468847F2
:1009300000200290029820F0004000F10040029058
:100940000298E168486101203EBD0000400000209F
:100950007CB5044600200190019820F01000103072
:100960000190E068806901998843E1688861E068E6
:10097000006A0090009800F00F0000EB800104F581
:100980005D7000EBC1050098C0F3434007282DD2ED
:10099000DFE800F02C04051D1E2C1F0027E0009846
:1009A000C0F30A1090B10098C0F30A122046E9681B
:1009B00002F063FBE8680099C1F30A110844E8609B
:1009C000A8690099C1F30A110844A8610FE00EE07C
:1009D0000DE0082204F2CC51204602F04EFBA8693B
:1009E0000099C1F30A110844A86100E000BF00BFEC
:1009F000E068806901990843E168886101207CBD55
:100A000038B5044608480068C16820468847002079
:100A10000090009820F00800083000900098E168ED
:100A20004861012038BD0000400000201FB5044689
:100A3000002000904FF48970005D0090234800680A
:100A40004169204688472069806801900020039012
:100A5000039820F4006000F5006003900398E168BB
:100A60004861A07A70B3019800F0010050B340F2E1
:100A70001510005D012825D19DF80000032821D123
:100A800000200290029820F00100401C0290D4F84F
:100A90000C01006802990843D4F80C110860029810
:100AA00020F00200801C0290D4F80C01006802992A
:100AB0000843D4F80C1108600548006840F00600AF
:100AC00003490860012004B010BD00004000002070
:100AD00010ED00E030B587B004460020029006908B
:100AE0000590049003900190029820F00100401CB2
:100AF000029020694068029988432169486000217A
:100B0000204602F035FA00250BE0FF2104F1180021
:100B100050F82500816004F1540050F825008160F0
:100B20006D1C6078A842F0D84FF0FF3120698161D8
:100B300006986FF30F00401C0690069880B200F5EF
:100B40008030069006992069C161059820F0080060
:100B500008300590059820F00100401C059005988C
:100B600020F00200801C05900599206941610498DD
:100B700020F00100401C0490049820F00800083088
:100B80000490049820F00200801C049004992069CD
:100B90000161206900680390039820F4FE600390CF
:100BA000039920690160204601F034FF0020019084
:100BB000019820F4805000F5805001900198E16880
:100BC000486104480068016920468847012007B051
:100BD00030BD0000400000202DE9F04106460F46E0
:100BE0003946304602F05EFA01214FF48970815592
:100BF0000021801C8155002511E005EB850106F5DB
:100C00008E7000EBC104012060702570E58000202B
:100C1000E0704020A0600020E06060616D1C707892
:100C2000A842EAD8002510E005EB850106F55D70C5
:100C300000EBC104002060702570E580E07040206A
:100C4000A0600020E06060616D1C7078A842EBD865
:100C5000304601F0E9FD304601F01AFC0021304633
:100C600002F088FA304601F0A0FC304602F049F963
:100C7000BDE8F08138B504460020009007480068C0
:100C8000C16920468847009820F4801000F5801044
:100C900000900098E1684861012038BD40000020C4
:100CA00038B504460020009007480068016A2046D5
:100CB0008847009820F4001000F50010009000987C
:100CC000E1684861012038BD4000002038B5044685
:100CD000E068406800900098C0F3800020B10548AB
:100CE0000068816A204688470098E16848600120D2
:100CF00038BD00004000002030B5024615692B6960
:100D000015696C6B24FA01F505F0010543EAC5137A
:100D100002F1180555F82150AD6805EA030030BD11
:100D200038B5044608480068416A204688470020D4
:100D30000090009820F0804000F1804000900098E2
:100D4000E1684861012038BD400000202DE9F843EA
:100D500006460F4600250020009007EB870106F5A8
:100D60008E7000EBC104D4E90501451AA068A842C1
:100D700000D2A568E81C4FEA900806F1180050F868
:100D800027008069009029E0D4E90501451AA06890
:100D9000A84200D2A568E81C4FEA9008ABB2FAB2AC
:100DA0003046E16802F00DFAE0682844E060A0698E
:100DB0002844A06106F1180050F8270080690090CF
:100DC000D4E90501884209D12178012000FA01F90E
:100DD0003069406B20EA090031694863009880B2AD
:100DE000404506D9D4E90510884202D2606900283E
:100DF000CAD10120BDE8F8837047F0B50A4600214A
:100E00000023002400BF3DE0012505FA01F3156829
:100E100005EA03049C4234D105684F000326BE4016
:100E2000B543056015794E00B54006683543056049
:100E30001579012D02D01579022D16D185684F0044
:100E40000326BE40B543856055794E00B54086689F
:100E500035438560456801268E40B5434560456849
:100E600096798E40B6B235434560C5684F0003267B
:100E7000BE40B543C560D5794E00B540C668354320
:100E8000C560491C1029BFD3F0BDF0B50023002474
:100E90004D07ED0E02FA05F3CE1000F1200555F8CE
:100EA00026504E07F70E0F26BE40B543CF1000F177
:100EB000200646F82750CE1000F1200555F82650A0
:100EC00045EA0304CE1000F1200545F82640F0BDA8
:100ED00070B50A480468001D0568001D06683444A2
:100EE00054B108220649204600F046F9042204497C
:100EF0001031284600F040F970BD0000107AFF1F45
:100F00004E0100202DE9F041074693480078012862
:100F100071D092480068B0F5006F02D100208F496F
:100F200008608E4800688E490968884204D1002014
:100F300089490870BDE8F0818848006888490968D7
:100F4000884210D985480068C0F50060854908606E
:100F500008460068824909680844824908600120FF
:100F60008149087009E07E4800687C490968401A98
:100F70007C49086000207C4908707A480068402855
:100F800068D97948007800284DD07448006800F18D
:100F90004006B6F5006F2FD9002407E06F480068BF
:100FA00020447249085C72490855641C6B4800680B
:100FB000C0F50060A042F1D8002409E06B48005D54
:100FC00066490968C1F500612144694A5054641CAE
:100FD00062480068A0F5F860A042EFD840255F485D
:100FE0000068A0F5F8605D4908605E480068403818
:100FF0005C490860A7E0ACE0002406E05B48574984
:101000000968405C5A490855641C402CF6D34025B9
:1010100052480068403051490860524800684038E2
:10102000504908608FE0002406E050484B490968A9
:10103000405C4F490855641C402CF6D34025474876
:1010400000684030454908604648006840384549D6
:10105000086078E044480078002859D03F4800688C
:10106000404909684618B6F5006F35D9002407E0F5
:101070003A48006820443D49085C3D490855641CD5
:1010800036480068C0F50060A042F1D800240AE0AC
:101090003648015D04F50060304A1268801A204429
:1010A000334A1154641C2F4800682C4909680844CD
:1010B000A0F50060A042EBD82A48008885B22948F4
:1010C0000068264909680844A0F5006023490860C3
:1010D00000202449086036E0002407E01F4800682B
:1010E00020442249085C22490855641C1D480068B8
:1010F0008442F3D31B48008885B218480068194918
:1011000009680844154908600020164908601AE07B
:10111000002407E01148006820441449085C144981
:101120000855641C0F4800688442F3D30D480088BA
:1011300085B20A4800680B490968084407490860F5
:101140000020084908602B46094A81213846FFF7EC
:10115000C2F900BFEEE600006C0000206400002031
:10116000600000206800002078000020FB070020BD
:10117000FB0F002000BFFEE730B50B46002100BF8B
:1011800016E00A24B4EB107F05D9302404EB107468
:1011900003F8114005E0412404EB10740A3C03F805
:1011A0001140000100254C00641C1D554C1CE1B28F
:1011B0009142E6DB30BD00BFFEE7704770B500210D
:1011C00000230F22C4781CB3174C246804F4E06495
:1011D000C4F5E064C4F30721C1F10404E3B20A4199
:1011E00044789C40E1B28478144021430C07210EDE
:1011F0000E4C05786155047804F01F050124AC40BD
:1012000005786D11AD0005F1E025C5F8004109E054
:10121000047804F01F050124AC40054D06787611D2
:1012200045F8264070BD00000CED00E000E400E051
:1012300080E100E010B5024800F0B8FC10BD0000ED
:10124000840100207047000029B1064A1268024359
:10125000044B1A6004E0034A12688243014B1A608F
:10126000704700003038024029B1064A1268024334
:10127000044B1A6004E0034A12688243014B1A606F
:10128000704700003438024029B1064A1268024310
:10129000044B1A6004E0034A12688243014B1A604F
:1012A0007047000044380240F0B5002100220024BD
:1012B000022500260223324F3F6807F00C0121B1BE
:1012C000042905D0082937D105E02E4F076036E004
:1012D0002D4F076033E02A4F3F1F3F68C7F380560A
:1012E000274F3F1F3F6807F03F036EB1264FB7FB04
:1012F000F3F7DFF88CC0ACF1040CDCF800C0CCF3E1
:10130000881C07FB0CF40CE01E4FB7FBF3F7DFF86B
:1013100070C0ACF1040CDCF800C0CCF3881C07FBF7
:101320000CF4174F3F1F3F68C7F301477F1C7D0038
:10133000B4FBF5F7076002E0124F076000BF00BF83
:101340000F4F3F6807F0F0010909104F7A5C0768FA
:10135000D74047600A4F3F6807F4E051890A0B4FB6
:101360007A5C4768D7408760054F3F6807F4604163
:10137000490B064F7A5C4768D740C760F0BD000054
:10138000083802400024F40000127A000000002017
:10139000704700000CB500200190009034480068B0
:1013A00040F480303249086000BF3148006800F4E2
:1013B000003000900198401C0190009818B90198E5
:1013C000B0F5A04FF1D12A48006800F4003010B108
:1013D0000120009001E0002000900098012846D1F3
:1013E00023484030006840F0805021494031086077
:1013F0002048006840F440401E4908601C480830FE
:1014000000681B49083108600846006840F4004045
:1014100008600846006840F4A05008601648091F9C
:101420000860081F006840F08070091F086000BF56
:101430000F48006800F000700028F9D040F20570F5
:101440000E4908600A480830006820F00300084987
:10145000083108600846006840F00200086000BFDC
:1014600003480830006800F00C000828F8D10CBDD3
:10147000003802400070004008544007003C024021
:101480007047000010B51548006840F4700013491B
:1014900008601348006840F001001149086000200E
:1014A0000F49083108600E4800680E4908400C4991
:1014B00008600D48091D0860081F006820F480209E
:1014C000091F0860002006490C310860FFF762FF21
:1014D0004FF0006001498039086010BD88ED00E0E0
:1014E00000380240FFFFF6FE10300024F0B503463E
:1014F000002400260025002040F66A17B94200D1DA
:1015000000BF1846C1F3421401F01F06012707FA75
:1015100006F5012C01D10C3004E0022C01D1103071
:1015200000E014301AB107682F43076002E0076833
:10153000AF430760F0BD00002DE9FF4705460E46AA
:101540000024A14600BFA046B08900B100BF2C8A8C
:1015500024F44054F08804432C82AC8941F20C609E
:101560008443B08831890843718908430443AC81BE
:10157000AC8A24F44074B0890443AC826846FFF717
:1015800093FE2048854202D01F48854202D1DDF8F3
:101590000C9001E0DDF80890A88900F4004040B10B
:1015A00009EBC90000EB091031684900B0FBF1F705
:1015B00007E009EBC90000EB091031688900B0FBB6
:1015C000F1F76420B7FBF0F004012009642101FB6E
:1015D0001078A88900F4004040B1322000EBC80028
:1015E000B0FBF1F000F00700044308E0322000EB0C
:1015F00008106421B0FBF1F000F00F0004432C81CF
:10160000BDE8FF87001001400014014070B504469A
:101610000D46D4F8E405294642682046904700204C
:1016200070BD70B504460D464FF48970005D022808
:1016300002D0032812D100E000BF688801280CD135
:1016400000214FF48C700151D4F8E40529468268DA
:1016500020469047204600F075F804E029462046D1
:1016600000F021F800BF00BF70BD2DE9F041064633
:101670000C46154600272B46224600213046FEF731
:10168000CFFE3846BDE8F0812DE9F04106460C4614
:10169000154600272B46224600213046FEF71BFF49
:1016A0003846BDE8F08170B504460D4680212046DD
:1016B000FEF7EDFE00212046FEF7E9FE204601F090
:1016C000A9F970BD2DE9F04104460E4615460027E4
:1016D000C4F89453C4F89053032140F211100155FB
:1016E0002B46324600212046FEF79AFE3846BDE8DA
:1016F000F08170B504460025052140F21110015516
:1017000000231A4619462046FEF78AFE204601F0BD
:1017100081F9284670BD2DE9F04104460E46154674
:101720000027C4F83C51C4F83851022140F211108E
:1017300001552B46324600212046FEF7CCFE3846A6
:10174000BDE8F08170B504460025042140F2111077
:10175000015500231A4619462046FEF7BCFE2046D6
:1017600001F058F9284670BD70B505460E46002EAA
:101770005DD105F58E7440F21110405D022849D10B
:10178000A168E069884217D9A168E069401AE06160
:10179000E878012803D1D4E902100844E060A08B66
:1017A00082B22846E168FFF76FFF00231A46194608
:1017B0002846FEF735FE2DE0A168206AB0FBF1F265
:1017C00001FB1200A8B9A168206A884211D3D4E9AC
:1017D000080188420DD2002211462846FFF754FF27
:1017E0000020606200231A4619462846FEF718FEBC
:1017F00010E0D5F8E405C06848B14FF48970405D49
:10180000032804D1D5F8E405C1682846884728464E
:10181000FFF76FFF4FF48B70405D012816D128460B
:1018200000F090FA00214FF48B7041550EE0D5F88E
:10183000E405406950B14FF48970405D032805D13B
:10184000D5F8E4053146426928469047002070BD2E
:1018500070B505460E46A6BB05F55D7440F2111045
:10186000405D03283DD1A168E069884217D9A1688D
:10187000E069401AE061E878012803D1D4E9021058
:101880000844E060A368E069984201D2E06900E0A2
:10189000A06882B22846E168FFF7E7FE21E0D5F8AC
:1018A000E405006948B14FF48970405D032804D114
:1018B000D5F8E4050169284688472846FFF742FF26
:1018C0000FE0FFE7D5F8E405806950B14FF4897067
:1018D000405D032805D1D5F8E405314682692846E4
:1018E0009047002070BD01460020704710B50446A7
:1018F000D4F8E81548698047012140F215100155D8
:10190000002010BD10B50446D4F8E815886980475A
:10191000D4F8E4050021426820469047002140F2B7
:1019200015100155002010BD70B504460D46E8881D
:10193000012804D029462046FFF7B5FE1AE04FF4EF
:101940008970005D022802D003280DD105E0012234
:1019500009492046FFF7DFFE0BE0012204F58871FC
:101960002046FFF7D8FE04E029462046FFF79BFEFD
:1019700000BF00BF70BD000048000020F8B504465D
:101980000E46F088009070880012082862D2DFE8C6
:1019900000F061040C186161575CA078D4F8EC1574
:1019A0000A6869469047054659E0A078D4F8E415DE
:1019B0008A6A69469047054602216970C4F8F05565
:1019C0004DE0B078062834D2DFE800F0030B131B9B
:1019D000232BA078D4F8EC154A6869469047054651
:1019E0002CE0A078D4F8EC158A6869469047054643
:1019F00024E0A078D4F8EC15CA68694690470546FB
:101A00001CE0A078D4F8EC150A69694690470546B1
:101A100014E0A078D4F8EC154A6969469047054669
:101A20000CE0A078D4F8EC158A6969469047054621
:101A300004E031462046FFF736FEF8BD00BF0EE059
:101A400031462046FFF72FFEF7E731462046FFF7E5
:101A50002AFEF2E731462046FFF725FEEDE700BFFC
:101A6000BDF8000088B1F08878B1F088BDF80010AA
:101A7000884202DDBDF8000000E0F0880090BDF86B
:101A8000002029462046FFF746FE00BFD5E7014665
:101A9000002002E0421CD0B2491C0A78002AF9D189
:101AA0007047000070B504460D464FF48970005D24
:101AB000022802D0032813D100E000BF01200C4906
:101AC00008604FF48C70005920B10846006840F05F
:101AD00002000860022206492046FFF71CFE04E0CF
:101AE00029462046FFF7DFFD00BF00BF70BD0000A4
:101AF0004C0000202DE9F04104460D461746002613
:101B0000FCB12046FFF7C3FF022101EB4000388003
:101B10003A783046711CCEB22A5403223046711CEA
:101B2000CEB22A540AE014F8012B3046711CCEB212
:101B30002A5400223046711CCEB22A542078002844
:101B4000F1D1BDE8F0812DE9F04104460F4615467C
:101B50001E46DDF81880204600F028FC2046FFF7DE
:101B6000C2FEC4F8E465C4F8E885C4F8EC5539460B
:101B70002046FFF731F8D4F8E8150868804720467A
:101B800000F002FCBDE8F08110B50446D4F8E4058D
:101B9000016A20468847002010BD10B50446D4F8DD
:101BA000E405416A20468847002010BD7CB5054603
:101BB0000024284601F034FA002875D0284601F0A8
:101BC0003AFA0190019808B900207CBD0198C0F351
:101BD000C04018B12846FEF705FE04430198C0F343
:101BE000804018B12846FEF769FD04430198C0F310
:101BF000400050B100200090009820F00200801CAE
:101C000000900098E968486100BF0198C00F18B1C2
:101C10002846FEF767FE04430198C0F3C02018B1C0
:101C20002846FEF703FF04430198C0F3C00018B133
:101C30002846FEF7E5FE04430198C0F3001018B1F2
:101C40002846FEF785FE04430198C0F3003018B122
:101C50002846FEF73FFF04430198C0F3403018B117
:101C60002846FEF75FFC04430198C0F3005018B10A
:101C70002846FEF7FFFF04430198C0F3405018B117
:101C80002846FFF70DF804430198C0F3807018B19F
:101C90002846FFF745F804430198C0F3800018B1C7
:101CA0002846FFF713F8044320468EE790F8CC252A
:101CB0000A7090F8CD254A7090F8CE3590F8CF256F
:101CC00003EB02224A8090F8D03590F8D12503EB3F
:101CD00002228A8090F8D23590F8D32503EB0222B5
:101CE000CA80CB884FF4A0721350012340F2111226
:101CF0001354704710B5044600234022194620466D
:101D0000FEF75AFB0023402280212046FEF754FBB9
:101D100001214FF489700155A078D4F8E825516865
:101D20008847002010BD10B50446D4F8E8150869AE
:101D3000804740F21310015D401E015503210155FB
:101D4000002010BD01460348026808694260002077
:101D5000704700001000002010B50446D4F8E405D8
:101D6000C06920B1D4F8E405C16920468847002045
:101D700010BD70B504460D46A88818BBE88808BB9E
:101D8000A87800F07F064FF48970005D032804D125
:101D900029462046FFF787FC18E04FF48A70065565
:101DA00031462046FEF765FB2046FFF7CBFC26B107
:101DB00002214FF48970015508E001214FF4897028
:101DC000015503E029462046FFF76DFC70BD70B554
:101DD00004460D46D4F8E40529460268204690479B
:101DE000D4F8E81588688047002070BD70B50446B7
:101DF0000D46A8783049087008460078012804DDAF
:101E000029462046FFF74FFC55E04FF48970005DEE
:101E1000022802D0032848D117E02748007880B173
:101E20002548007884F8100103214FF4897001558A
:101E3000214801782046FFF7CAFF2046FFF782FCC1
:101E400002E02046FFF77EFC34E01B48007880B9B2
:101E500002214FF4897001551748007884F8100169
:101E6000154801782046FFF7D1FB2046FFF76AFCB2
:101E70001AE094F8100110490978884211D094F8BA
:101E800010112046FFF7C2FB0B48007884F81001C0
:101E9000094801782046FFF79AFF2046FFF752FCD9
:101EA00002E02046FFF74EFC04E029462046FFF7FB
:101EB000FAFB00BF00BF70BD50000020F8B504461B
:101EC0000D460026688801280DD101214FF48C7041
:101ED0000151D4F8E40529468268204690472046FF
:101EE000FFF730FC3FE0688802283CD12879D0BB5E
:101EF000206940680090A8880612062E22D2DFE8EA
:101F000006F02103090F151B009820F07000103017
:101F100000901DE0009820F070002030009017E045
:101F2000009820F070003030009011E0009820F010
:101F30007000403000900BE0009820F070005030AE
:101F4000009005E0009820F070001030009000BF75
:101F500000BF05480099016001214FF48B700155C5
:101F60002046FFF7EFFBF8BD100000201CB504462B
:101F700069462046FFF79AFE9DF8000000F01F001A
:101F800020B1012807D002280FD109E06946204678
:101F900000F016F811E06946204600F007F90CE061
:101FA0006946204600F046F807E09DF8000000F082
:101FB00080012046FEF76BFA00BF00BF00201CBD69
:101FC00070B505460C46002660780A2829D2DFE85D
:101FD00000F01923281E280A0528140F2146284638
:101FE000FFF7CCFC22E021462846FFF7C2FE1DE0A9
:101FF00021462846FFF7FAFE18E021462846FFF75B
:1020000093FC13E021462846FFF74CFD0EE02146E5
:102010002846FFF753FF09E021462846FFF701FB5A
:1020200004E021462846FFF73EFB00BF00BF3046D4
:1020300070BD00002DE9F04105460E4600273479B9
:10204000307800F06000202808D1D5F8E40531464A
:102050008268284690473846BDE8F08170780028AD
:1020600057D001282BD0032875D14FF48970405DDB
:10207000022802D003281BD107E02CB1802C03D00A
:1020800021462846FEF703FA17E0708830B92CB1D4
:10209000802C03D021462846FEF7F9F9D5F8E4054F
:1020A00031468268284690472846FFF74BFB04E0FC
:1020B00031462846FFF7F7FA00BF00BF70E04FF443
:1020C0008970405D022802D003281BD107E02CB1A3
:1020D000802C03D021462846FEF7D9F917E07088F6
:1020E00078B95CB1802C09D021462846FEF740F92A
:1020F000D5F8E40531468268284690472846FFF720
:1021000021FB04E031462846FFF7CDFA00BF00BFAF
:1021100046E04FF48970405D022802D0032837D191
:1021200007E02CB1802C03D021462846FEF7AFF9FA
:1021300033E004F08000802812D104F07F0000EB2F
:10214000800105F58E7000EBC100807820B1012080
:102150001549086016E022E000201349086011E0EC
:1021600004F0800070B904EB840105F55D7000EBAC
:10217000C100807818B101200B49086002E00020FE
:1021800009490860022208492846FFF7C4FA04E01A
:1021900031462846FFF787FA00BF00BF00E000BFC6
:1021A00000BF384658E700004400002070B50446E0
:1021B0000D4600264FF48970005D032814D128795C
:1021C00001280CDCD4F8E4052946826820469047B3
:1021D000E88840B93EB92046FFF7B4FA03E0294643
:1021E0002046FFF760FA04E029462046FFF75BFA35
:1021F00000BF00BF304670BD10B504464FF4897073
:10220000015D401C01550421401E0155D4F8E8151C
:10221000C8688047002010BD70B505460C462DB932
:102220002246064906A0FFF765FC04E02246034962
:1022300003A0FFF75FFC014870BD00004C180020B0
:1022400056435020436F6E666967000070477047C1
:102250000246122008800148704700002C0100202F
:10226000704710B1012802D100E001E000E000BF9A
:1022700000BF7047704770477047000070B5054653
:102280000C462DB92246064906A0FFF733FC04E0B0
:102290002246034903A0FFF72DFC014870BD000052
:1022A0004C18002056435020496E74657266616375
:1022B00065000000024604200880014870470000C5
:1022C0004801002070B505460C462246024903A08D
:1022D000FFF710FC004870BD4C18002053544D69A6
:1022E00063726F656C656374726F6E69637300000F
:1022F00070B505460C462DB92246064906A0FFF7E3
:10230000F9FB04E0224603490CA0FFF7F3FB014868
:1023100070BD00004C18002053544D3332205669D4
:10232000727475616C20436F6D506F727420696EAA
:10233000204853206D6F64650000000053544D33F6
:1023400032205669727475616C20436F6D506F72E4
:102350007420696E204653204D6F646500000000B4
:1023600070B505460C461A202080FEF7B1FD0148E5
:1023700070BD00004C010020024643200880014847
:1023800070470000A800002038B5044643208DF8AF
:10239000000001208DF8010003208DF802000120CB
:1023A0008DF803006846FEF709FF38BD1CB50446EA
:1023B00001210846FEF748FF4FF4C8500090032063
:1023C0008DF8050002208DF8040000208DF806002D
:1023D0008DF8070069462148FEF70FFD0A220B2100
:1023E0001E48FEF752FD0A220C211C48FEF74DFD47
:1023F0000A2208211948FEF748FD4FF400700090AA
:1024000003208DF8050000208DF8040001208DF8D0
:10241000060000208DF8070069461048FEF7EDFC25
:102420004FF48060009001208DF806008DF80700C1
:1024300003208DF8050069460848FEF7DEFC0A22F5
:1024400011460648FEF721FD01218803FEF71CFF17
:1024500001218020FEF708FF1CBD000000000240A3
:1024600010B504464FF47A7104FB01F000F001F856
:1024700010BD10B50022C0EB0013DB000724B3FB36
:10248000F4F100BF531C1A468B4200D910BDF9E786
:102490003EB5044600250020029001900090207A6D
:1024A00001283DD1E068806B0190019820F48030D4
:1024B0000190607A28B1019820F4801000F5801016
:1024C00001900198E168886300200290E068C0688C
:1024D0000290029820F040000290029820F48000C0
:1024E0000290029820F400300290029820F400201C
:1024F00002900298E168C860204600F05DF9E0783B
:1025000001283DD1009820F01E000A30009000986C
:1025100020F02000203000900098E16888602FE0D3
:10252000E068C0680290029820F0400040300290BD
:102530000298E168C860204600F03EF90020019052
:10254000019820F4803000F580300190019820F44B
:10255000802000F580200190019820F4002000F5F3
:1025600000200190607A28B1019820F4801000F5D5
:10257000801001900198E16888631420FFF770FFD4
:10258000E07801280FD1E06880680090009820F082
:102590001E000A300090009820F0200020300090AB
:1025A0000098E168886028463EBD70B588B0044652
:1025B00000260020079006900590049003900021CB
:1025C000D4F80C010160206900680690069820F498
:1025D000C0500690069920690160E07A01283FD139
:1025E0000321204600F010FD8020E1684862059834
:1025F00080B200F50010059005986FF30F00803051
:1026000005900598E1688862059800EB10410498F0
:1026100061F30F000490049880B200F5000004906C
:102620000498E168C1F80401049800EB104161F3DB
:102630000F000490049880B200F5001004900499F3
:10264000E068C0F80811049800EB104161F30F0036
:102650000490049880B204900499E068C0F80C11CA
:102660001021204600F084FC204600F05BFC002195
:102670002069016120694161491E20698161002151
:102680002069C16100252CE004F1180050F82500F4
:10269000006807900798C00F70B100200790079856
:1026A00020F0804000F180400790079820F0006003
:1026B00000F10060079001E00020079004F118008D
:1026C00050F8250007990160002104F1180050F826
:1026D00025000161FF2104F1180050F825008160F8
:1026E0006D1C6078A842CFD800252CE004F154007E
:1026F00050F82500006801900198C00F70B10020CB
:102700000190019820F0804000F1804001900198F4
:1027100020F0006000F10060019001E000200190D5
:1027200004F1540050F8250001990160002104F1E2
:10273000540050F825000161FF2104F1540050F8C5
:10274000250081606D1C6078A842CFD800200390DE
:10275000039820F4807000F5807003902069006970
:1027600003998843084321690861E07801281DD155
:1027700000200290029820F00100401C0290029874
:1027800020F00200801C02904021029861F38A0030
:102790000290029820F4803000F580300290029878
:1027A00061F359400290029920690163204600F0CC
:1027B00050FB304608B070BDF8B504460026002531
:1027C0000020009000BF0320FFF753FEE06800697F
:1027D0000090681C05461349884201D90020F8BDC5
:1027E0000098C00F0028EED00025009820F00100CE
:1027F000401C00900098E168086100BFE068006933
:102800000090681C05460749884200D904E00098FA
:1028100000F001000028F1D100BF0320FFF729FEDE
:102820003046DCE7400D030008B5014600200022D9
:102830000092009A22F00102521C0092CA6892682B
:10284000009B9A43CB689A6008BD0EB501460020F4
:10285000002200920A69926802928A6912680192C3
:10286000029AC2F3410232B1012A05D0022A09D0EC
:10287000032A0DD101E000BF00BF019A6FF30A02E5
:1028800001920AE0019A6FF30A02D21C019204E05D
:10289000019A6FF30A02019200BF00BF019B8A698F
:1028A0001360009A22F4807202F5807200920A6925
:1028B0005268009B9A431A430B695A600EBDFCB5DF
:1028C0000246002000240025019500954D78012D39
:1028D00052D193691D6801951D6900954D6955B9DF
:1028E000009D25F07F050095009D25F4002505F548
:1028F0000025009516E08E684D69B54207D98D68B0
:102900004D610E7A009D66F30605009504E00E7D8C
:10291000009D66F306050095009D25F4002505F54C
:1029200000250095009D1D61D578012D06D10F78F9
:1029300002F1180555F827500E696E61019D25F0CA
:10294000806505F180650195019D25F0004505F143
:1029500000450195019D1D60D578002D59D14D6927
:10296000002D56D00E780125B5402C4315696D6BAE
:102970002543166975634CE00E7802F1540555F84D
:1029800026502D6801950E7802F1540555F8265011
:102990002D6900954D695DB90E7A009D66F30605B7
:1029A0000095009D25F4002505F5002500950CE017
:1029B0008D684D610E7A009D66F306050095009DB9
:1029C00025F4002505F5002500950F7802F1540542
:1029D00055F82750009E2E61D578012D06D10F782D
:1029E00002F1540555F827500E696E61019D25F0DE
:1029F000806505F180650195019D25F0004505F193
:102A0000004501950F7802F1540555F82750019EB5
:102A10002E60FCBD0CB500210191019921F0C0414F
:102A200001F1C0410191019921F4002101F500213A
:102A30000191019921F07F0118310191019A416DB5
:102A40000A61C178012915D10021009100F2CC5111
:102A5000426D5161416D09680091009921F000417A
:102A600001F1004100914FF080210091009A416DE9
:102A70000A6000BF0CBD3CB5024600200024019452
:102A800000944C78012C0CD10D7802F1180454F804
:102A900025300D780124AC40009D64F30F050095AE
:102AA0000BE00D7802F1540454F825300D78012420
:102AB000AC40009D64F31F4500951C680194019C87
:102AC000C4F3C034E4B90D89019C65F30A04019490
:102AD000CD78019C65F3934401948D79019C65F355
:102AE00099540194019C24F0805404F18054019481
:102AF000019C24F4004404F500440194019C1C60F2
:102B00001469E469009D2C431569EC613CBD38B53E
:102B100003460020002400944C78012C05D10D7848
:102B200003F1180454F8252004E00D7803F154044F
:102B300054F8252014680094009C24F40014009498
:102B4000CC78032C02D0CC78022C05D1009C24F048
:102B5000805404F180540094009C146038BD3CB54E
:102B6000024600200024019400944C78012C0CD1E2
:102B70000D7802F1180454F825300D780124AC408A
:102B8000009D64F30F0500950BE00D7802F15404ED
:102B900054F825300D780124AC40009D64F31F45A6
:102BA0000095019C24F400440194019C1C6014696C
:102BB000E469009DAC431569EC613CBD38B5034642
:102BC0000A460020002400945478012C18D115786E
:102BD00003F1180454F825100C680094009CE40FCD
:102BE0002CB1009C24F0804404F180440094009CAB
:102BF00024F4001404F500140094009C0C600EE012
:102C0000157803F1540454F825100C680094009CC6
:102C100024F4001404F500140094009C0C6038BDEA
:102C2000FEB505460C4600260027002002900190C4
:102C3000607801287ED1217805F1180050F8210034
:102C400000680290217805F1180050F82100006911
:102C50000190606948B901986FF312000190012159
:102C6000019861F3DC40019017E06169019861F31C
:102C7000120001906069401EA1680844B0FBF1F1A8
:102C8000019861F3DC400190E078012805D10198BA
:102C900020F0C04000F100500190227805F11800AA
:102CA00050F8220001990161E878012807D12278C3
:102CB00005F1180050F82200216941610DE0E0782B
:102CC00001280AD0606940B12178012000FA01F79B
:102CD0002869406B384329694863E078012813D19B
:102CE0002869806800900098C0F3002030B90298ED
:102CF00020F0005000F10050029005E0029820F012
:102D0000805000F180500290029820F0806000F125
:102D100080600290029820F0004000F10040029094
:102D2000227805F1180050F8220002990160E0783D
:102D3000012800E008E070D1A08A83B222782846FA
:102D4000E16800F03EFA68E0217805F1540050F89F
:102D5000210000680290217805F1540050F821000C
:102D600000690190606950B9A168019861F312008F
:102D700001900121019861F3DC40019017E0A06807
:102D8000401E61690844A168B0FBF1F1019861F34C
:102D9000DC4001900198C0F3C940A1684843019903
:102DA00060F3120101910198C0F312006061227872
:102DB00005F1540050F8220001990161E8780128DA
:102DC00006D1227805F1540050F8220021694161B2
:102DD000E07801280ED1607930B1029820F00050DF
:102DE00000F10050029005E0029820F0805000F1C0
:102DF00080500290029820F0806000F18060029084
:102E0000029820F0004000F100400290227805F185
:102E1000540050F82200029901603046FEBD08B50A
:102E200000210091491EC26851606FF08041C26864
:102E30005161009921F0004101F100410091009998
:102E400021F4006101F5006100910099C26891616F
:102E500008BD38B50446002500200090E16888616F
:102E60006FF08040E16848612046FFF7D8FFE078C6
:102E700020B9009820F0100010300090009820F445
:102E8000006000F500600090009820F4805000F58C
:102E900080500090009820F4005000F50050009001
:102EA000009820F4802000F580200090009820F405
:102EB000002000F500200090009820F00800083065
:102EC0000090009820F4801000F580100090009889
:102ED00020F4001000F500100090009820F08040D1
:102EE00000F180400090009820F00400001D009048
:102EF000E0688069009988430843E1688861284652
:102F000038BD08B50146002000220092009A22F048
:102F10000102521C0092CA689268009B1A43CB6857
:102F20009A6008BDF8B504460025002600200090F0
:102F3000009820F01000103000900098E1680861BF
:102F400000BFE06800690090701C0646074988428F
:102F500000D904E00098C0F300100028F1D100BFB0
:102F60000320FFF786FA2846F8BD0000400D030055
:102F7000F8B504460D460026002700200090009872
:102F800020F0200020300090009865F38A10009017
:102F90000098E168086100BFE06800690090781C53
:102FA00007460749884200D904E00098C0F3401062
:102FB0000028F1D100BF0320FFF75BFA3046F8BDCF
:102FC000400D030008B5014600200A69926800928E
:102FD000009AC2F3410232B1012A06D0022A07D078
:102FE000032A07D102E0032006E000BF022003E02D
:102FF000012001E0022000BF00BF08BD0146C868F3
:10300000406900F00100704708B50269126800923B
:10301000009A61F301020092009B0269136008BDEF
:1030200000B502461046FFF7E9FF012801D0012054
:1030300000BD0020FCE701460020CA685069CA684C
:103040009269104070470146086982690869C06941
:10305000024090B270470146086982690869C069F8
:103060000240100C7047024602F1540353F821301D
:10307000986813695B6918407047F0B503460024EF
:10308000D01CC71700EB9777BD10D3F8D06000BFF6
:1030900003E030680860091D641CAC42F9D308469F
:1030A000F0BD000070B502460C460023002000254C
:1030B000D5700125957040259580012C0CD14FF0DD
:1030C000A0430125D57208251570042555709D155E
:1030D000D580022515720AE04CB9254B0025D57222
:1030E0000C251570062555704FF4A065D580D3606A
:1030F00003F500651561002110E003F5106505EB8F
:10310000411602F1180545F8216003F5306505EB1D
:10311000411602F1540545F82160491C55788D424D
:10312000EBD803F5806555614035C2F8CC500021DD
:1031300008E003F5A06505EB411602F1900545F89E
:103140002160491C15788D42F3D8002108E003F571
:10315000805505EB013602F1D00545F82160491C88
:1031600015788D42F3D803F56065C2F80C5170BD37
:1031700000000440F8B504460D460026E068C0682B
:103180000090009820F000500090009820F08040BF
:103190000090012D06D1009820F0005000F1005061
:1031A000009006E02DB9009820F0804000F18040AA
:1031B00000900098E168C8603220FFF751F930466E
:1031C000F8BD2DE9F04104460026E078B0B90027AB
:1031D0000020DD1C4FEAE57805EB98784FEAA80758
:1031E00004F1D00555F822C000BF04E00D68CCF80A
:1031F0000050091D401CB842F8D300BF3046BDE85E
:10320000F08100BFFEE7000010B50446BCB94FF4E2
:10321000E1303C49086000208880C8804FF4C060DD
:103220000881002088810C2048813748FEF784F906
:10323000012240F225513548FEF758F95FE0344845
:10324000007920B1012806D002280ED108E0002024
:103250002C49C8800EE04FF440502A49C88009E04C
:103260004FF400502749C88004E00020FFF7CCFF4E
:10327000022010BD00BF2648407920B1012806D0A9
:1032800002280ED108E000201E4908810EE04FF40C
:1032900080601C49088109E04FF4C0601949088129
:1032A00004E00020FFF7B0FF0220E2E700BF18486B
:1032B0008079072802D0082810D103E000201149A6
:1032C000888010E00F48008918B900200D498880D7
:1032D00003E04FF480500B49888004E00020FFF7A2
:1032E00093FF0220C5E700BF094800680549086050
:1032F000002088810C2048810348FEF71DF900203A
:10330000B7E700003C18002000480040004400409F
:10331000F400002070B505460C461646042D15D065
:1033200007DC7DB1012D0ED0022D0DD0032D3FD134
:103330000BE0202D0BD0212D1FD0222D36D0232D98
:1033400036D134E035E034E033E032E031E020786B
:10335000617840EA0120A17840EA0140E17840EA42
:103360000160154908602079087160794871A07979
:1033700088710120FFF748FF1BE00F48007820709C
:103380000D480088000A60700B480068000CA070AF
:1033900009480068000EE07007480079207106486F
:1033A0004079607104488079A07102E001E000E09A
:1033B00000BF00BF002070BDF400002010B5024621
:1033C00005480160002003E0135C044C2354401CBA
:1033D0008842F9D3002010BDF00000203C100020EE
:1033E00070B502460E488079082816D100200AE000
:1033F000145C0C4B1D681B685B1C0A4E33600A4B47
:103400005C55431CD8B28842F2D306480068B0F538
:10341000006F02D10020034B1860002070BD000037
:10342000F400002060000020FB070020002070470F
:10343000002070471CB508250CA4002001900E4800
:103440000E4B0F4A012100900E48FEF77CFB0CE06A
:103450000198411C0191B0F5801F06D10A48294608
:10346000C2682046904700200190F1E76162633313
:103470003435363700000000680100207C00002051
:103480001001002084010020FC0000202DE9F04103
:103490000746884692480078012805D1914800687F
:1034A00018B900208E4908700AE18F4800688F49DA
:1034B0000968884210D98C480068C0F500608949C5
:1034C0000860084600688949096808448549086019
:1034D00001208749087006E084480068824909682D
:1034E000401A804908607F480068402867D98048B2
:1034F000007801284BD17C48006800F14006B6F501
:10350000006F2CD9002407E07748006820447949EF
:10351000085C79490855641C73480068C0F5006070
:10352000A042F1D8002409E07248005D6E490968A4
:10353000C1F500612144704A5054641CA6F5006036
:10354000A042F1D8402568480068A0F5F8606649B7
:10355000086064480068403862490860A7E00024B9
:1035600007E06148006820446249085C62490855E8
:10357000641C402CF5D340255B48006840305A4914
:103580000860584800684038564908608FE00024B9
:1035900007E05548006820445649085C56490855DC
:1035A000641C402CF5D340254F48006840304E49FC
:1035B00008604C48006840384A49086077E04C4849
:1035C0000078012858D148480068464909684618DB
:1035D000B6F5006F34D9002407E043480068204462
:1035E0004449085C44490855641C3F480068C0F5DC
:1035F0000060A042F1D8002409E03E48005D3A494D
:103600000968C1F5006121443B4A5054641C3548A7
:103610000068354909680844A0F50060A042ECD86C
:103620003048008885B22F4800682F49096808444F
:10363000A0F500602C49086000202A49086036E0A7
:10364000002407E02848006820442A49085C2A49E9
:103650000855641C234800688442F3D3214800883D
:1036600085B2214800681F49096808441E4908605E
:1036700000201C4908601AE0002407E01A4800688E
:1036800020441C49085C1C490855641C1548006806
:103690008442F3D31348008885B213480068114967
:1036A000096808441049086000200E4908602B464C
:1036B000114A81213846FCF70EFF0020BDE8F08159
:1036C00007480078022808D100231A46812138468D
:1036D000FCF701FF0020024908700020EEE700001F
:1036E0006C000020680000206400002060000020C2
:1036F00078000020FB070020FB0F002070B5044677
:103700000D4605EB850104F55D7000EBC100008BF3
:1037100086B2064831460269054890474023044A6C
:1037200001212046FCF77CFE002070BDFC0000203B
:10373000BB07002070B504460D4681212046FCF7EA
:10374000F2FD01212046FCF7EEFD82212046FCF728
:10375000EAFD024948688047002070BDFC00002057
:1037600010B5044608480068FF280AD00748836857
:10377000074808490268044800689847FF20024942
:103780000860002010BD000070000020FC00002038
:10379000740000205800002070B505460E46022334
:1037A000402281212846FCF707FE02234022012106
:1037B0002846FCF701FE0323082282212846FCF755
:1037C000FBFD084C0220207100206071064908684A
:1037D00080474023054A01212846FCF721FE0020AE
:1037E00070BD00002C010020FC000020BB07002061
:1037F00010B50446074801680068401C054A10607F
:10380000052905D10020114608602046FDF77AFB06
:10381000002010BDEC00002070B505460C46207855
:1038200000F0600068B3202825D1E088D8B1207866
:1038300000F0800058B1E288607823498B68234902
:103840009847E28821492846FDF765FF11E0607836
:103850001F490860E0881F490860E2881B49284624
:10386000FDF730FF05E06078174900228B681146AC
:103870009847002070BD21462846FDF714FF02201E
:10388000F8E76078062804D00A2808D00B2818D159
:103890000BE021462846FDF706FF0220EAE7012259
:1038A0000D492846FDF737FF0BE0A078012803DA21
:1038B000A0780949086003E021462846FDF7F3FE99
:1038C00000BF00BF0020D5E7FC000020580000200A
:1038D0007000002074000020540000204FF0407061
:1038E000E1EE100A704700000839000800000020CF
:1038F00084010000C4010008FC3900088401002094
:103900002C1E000020020008412D01020304044582
:10391000060708091351181408691714086D1F14B5
:1039200008591D1408F51C1408F9211B08270C134D
:10393000891B1B089B041AED241305192308140284
:103940002C20B2FF1399371B08350413193842088D
:103950001A610C138D341408FD361B08F10C811309
:10396000792315080902431302012DC0320904B15D
:10397000190B130524161001052401100901042454
:1039800002020524061701070582030815FF090432
:103990000133020A2E0705010240072A8107A133DD
:1039A000C20112081A316C1A2D041315331B08E1D9
:1039B000041ABD041351221B08B5041AC5041AF1D8
:1039C000041A617C1A19081A7D041A1257311E4014
:1039D000830440578D4E0203010A06121201071A92
:1039E000040309041A031A79401A63041A4D041ACD
:0C39F00077041A75042A4F6019040000C7
:040000050800018965
:00000001FF
